:100000000C94AC030C94C9030C94C9030C94C9035D
:100010000C94C9030C94C9030C94C9030C94C90330
:100020000C94C9030C94C9030C948B310C945D326D
:100030000C94D8270C94C9030C94C9030C94C903DD
:100040000C94C9030C94C9030C94C9030C94C90300
:100050000C94C9030C9440280C94C9030C94C90354
:100060000C94C9030C94C9030C94C9030C94C903E0
:100070000C94C9030C94C9030C94C9030C94C903D0
:100080000C94C9030C94C9030C94C9030C94C903C0
:100090000C94C9030C94C9030C94C9030C94C903B0
:1000A0000C94C9030C94C9030C94C90321042404BF
:1000B00027042A042D043004330486068B06950693
:1000C00089068E0693069106D707D907E407DB0752
:1000D000DD07DF07E107E307E607E807EA07F507BB
:1000E000EC07EE07F007F207F407F707EF14F21436
:1000F000F514F814FB14FE140115041507150A1560
:100100000D152F1D2F1D611D611D981DB81D211F6F
:100110007F1FFA1D7F1FA71EA71E181F7F1F7F1F8F
:10012000791FB41EB41EB41EB41EB41EB41EB41E79
:10013000B41EB41EB41EB41EB41EB41EB41EB41E2F
:10014000B41EC51ED21ED91EE01EEA1E0A200A20B9
:100150001C201C2013201C201C201C200A200A20EC
:1001600018201C201C201820CA32F132E333F1324F
:10017000E3333D336033E333B633C53305A84CCDA9
:10018000B2D44EB93836A9020C50B9918688083CD1
:10019000A6AAAA2ABE000000803F6572676F646F3E
:1001A000785F657A2F37376664653461393865352D
:1001B000313362643239356530204020302E362E9E
:1001C0003230332D392D676434366433302D646911
:1001D000727479000000F0A12E0035002B00E100C0
:1001E000354100001E00140004001D6134004D0064
:1001F0001F001A0016001B00E3002A002000080060
:100200000700060050002C0021001500090019000D
:100210004F004A00220017000A00050000004C00B1
:10022000500001530000000F0000E3004F00015395
:10023000000000070000E20023001C000B0011007A
:1002400000002961240018000D00100052004B002E
:1002500025000C000E003600510028002600120078
:100260000F0037002F002B00270013003342387196
:1002700030004E002D0031003468E50001510000CF
:100280002900010001000100010000003A001E02E7
:1002900020022202010001003B001F022102230272
:1002A0000100C95C3C002F0226022F000100CA5C3D
:1002B0003D00300227023000010001003E00310203
:1002C000350035020000C35C0100010000000100A0
:1002D0000000010001000100000001000000C25CFC
:1002E0003F005200510024020000E05C4000240066
:1002F00021001E00010001004100250022001F0016
:100300003700C55C42002600230020002700C65CA1
:1003100043002502010031002E0001004400450089
:1003200001000100010000000100010001000100C6
:1003300001000000010001000100010001000100B6
:1003400001000100F2000100010001000100F000C5
:10035000F1000100F400010001000100F3000100C0
:10036000F500010001000100010001000000010092
:100370000100010000000100000001000100010077
:100380000000010000000100010001000100010067
:10039000000001000100010001000100A9000100AE
:1003A000010001000100AC00AA00B600010001003C
:1003B0000100AB00A80001000100010001000100E4
:1003C0000100010001000100AE0001000100000079
:1003D00000000000000000002A2B280000000000A0
:1003E00000000000000000000000002900000000E4
:1003F0002C1E3420212224342627252E362D373852
:10040000271E1F202122232425263333362E37385A
:100410001F0405060708090A0B0C0D0E0F10111218
:10042000131415161718191A1B1C1D2F3130232DE4
:10043000350405060708090A0B0C0D0E0F101112E2
:10044000131415161718191A1B1C1D2F3130354C93
:10045000000000000000000000000000000000009C
:10046000000000000000000000000000000000008C
:100470000001010101010100010101010000000072
:100480000000000000000000000001000100010168
:10049000010101010101010101010101010101014C
:1004A000010101010101010101010100000001013F
:1004B000000000000000000000000000000000003C
:1004C0000000000000000000000000010101010028
:1004D000000000000001010101010101010102020F
:1004E00002020202020202030303030303030304E2
:1004F00004040404040505050505060606060607AA
:10050000070707080808080909090A0A0A0A0B0B5D
:100510000B0C0C0C0D0D0D0E0E0F0F0F10101111FA
:10052000111212131314141515161617171818197B
:10053000191A1A1B1C1C1D1D1E1F1F2020212222E0
:100540002324252526272728292A2B2B2C2D2E2F1F
:100550002F30313233343536363738393A3B3C3D3B
:100560003E3F4041424344464748494A4B4C4D4F29
:1005700050515253555657585A5B5C5E5F606263E8
:10058000646667696A6C6D6E707173747678797B76
:100590007C7E8081838486888A8B8D8F91929496CD
:1005A000989A9B9D9FA1A3A5A7A9ABADAFB1B3B5E9
:1005B000B7B9BBBDBFC1C4C6C8CACCCFD1D3D6D8CA
:1005C000DADCDFE1E4E6E8EBEDF0F2F5F7FAFCFF68
:1005D00004033000000016034500720067006F003E
:1005E00044006F007800200045005A000000160308
:1005F0004500720067006F0044006F007800200023
:1006000045005A0000000403090409023B000201EE
:1006100000A0FA09040000010301010009211101F1
:1006200000012240000705810308000A09040100B7
:10063000010300000009211101000122C00007058B
:10064000820320000A1201100100000008EDFE07DD
:100650001301000102030105010902A1018502093C
:1006600001A1000509190129051500250195057548
:1006700001810295017503810105010930093115D8
:1006800081257F95027508810609381581257F959A
:100690000175088106050C0A38021581257F950130
:1006A00075088106C0C005010980A10185031601F6
:1006B000002603001A81002A83007510950181002D
:1006C000C0050C0901A1018504160100269C021A2F
:1006D00001002A9C02751095018100C005010906E0
:1006E000A1018505050719E029E7150025019508F1
:1006F0007501810205081901290595057501910209
:100700009501750391010507190029EF15002501D1
:1007100095F075018102C005010906A101050719BF
:10072000E029E715002501950875018102950175FD
:1007300008810105081901290595057501910295A2
:1007400001750391010507190029FF150026FF0017
:10075000950675088100C00011241FBECFEFDAE0B6
:10076000DEBFCDBF13E0A0E0B1E0E6EEFFE602C0E1
:1007700005900D92A435B107D9F726E0A4E5B3E0C2
:1007800001C01D92A337B207E1F70E94AF2E0C946F
:10079000F1370C94000080B38C7080BB81B3836F01
:1007A00081BB089584B1807F84B985B1807F85B98C
:1007B0008AB1837F8AB98BB1837F8BB93E98469883
:1007C0000895CF93E82F873090F5809104019091A0
:1007D0000501892B09F049C0CE2F64E670E080E462
:1007E0000E949C189093050180930401892BD1F4F9
:1007F00064E670E082E10E94F31890930501809313
:100800000401892B79F481E090E001C0880FCA953A
:10081000EAF764E670E080950E94F3189093050172
:100820008093040184E690E0CF910C94481990E005
:10083000FC013797E730F105C0F4EA5AFF4F0C94FA
:10084000E436209A289811C0219A29980EC0229A3D
:100850002A980BC0239A2B9808C0529A5A9805C020
:10086000539A5B9802C03E9A4698CF910895089596
:1008700008950C943804CF93DF930E94CA0590E04A
:1008800090930501809304010E94D2030E94CB0340
:10089000A9EAB3E025E533E0E7EBF3E04EE04E0FE5
:1008A00011921D9280E090E0E901C80FD91F1882D3
:1008B000019686309105C1F72A5F3F4F4E13F0CF66
:1008C000DF91CF910C94FE060E94CA0590E09093B0
:1008D0000501809304010E94D2030E94CB03E7EB41
:1008E000F3E08EE08E0F11928E13FDCF0895CF931B
:1008F000DF93E62FF0E0E755FC4F408148278083E7
:1009000086E0689FF0011124EB5AFC4F20E030E0B4
:1009100080E061E070E050E0AAE0B22F908199237E
:1009200019F09150908307C0EB01022E01C0CC0F4B
:100930000A94EAF78C2BEA0102C0D595C795BA95BF
:10094000E2F7C0FDA0832F5F3F4F3196263031057F
:1009500021F7DF91CF910895CF93DF93D82F873080
:1009600008F040C08091040190910501892B09F0A5
:1009700042C064E670E080E40E949C1890930501F8
:1009800080930401892B11F0C0E027C064E670E079
:1009900083E10E94F3189093050180930401892B51
:1009A00099F764E670E081E40E949C189093050139
:1009B00080930401892B41F784E690E00E9423197B
:1009C00097FF05C09093050180930401DDCFC82FE8
:1009D000C095109205011092040184E690E00E94F7
:1009E00048190AC09FB1CFB1C07FC695C695937014
:1009F000C92BC09501C0C0E06D2F8C2F0E947704D9
:100A0000282F2095ED2FF0E0E954FC4F90819223A0
:100A10008C23892BDF91CF910895EF92FF920F9352
:100A20001F93CF93DF938091040190910501892B4F
:100A300091F0809154038F5F8093540381110BC018
:100A40000E94CA0590E09093050180930401892BD0
:100A500011F40E945C0587EBE82E83E0F82E0EEB84
:100A600013E0C0E08C2F0E94E103D7E0DC0F8D2F54
:100A70000E94E1038C2F0E94AC04F70181937F0157
:100A80008D2F0E94AC04F80181938F010E94D20344
:100A9000CF5FC73039F70E94080781E0DF91CF911F
:100AA0001F910F91FF90EF900895E82FF0E0E95427
:100AB000FC4F80810895089556985E9825982D984A
:100AC00026982E9827982F988FEF90E09093890082
:100AD0008093880090938B0080938A0090938D0080
:100AE00080938C00259A2D9A2FEF80E792E0215079
:100AF00080409040E1F700C00000269A2E9A2FEF28
:100B000080E792E0215080409040E1F700C0000073
:100B1000279A2F9A2FEF80E792E021508040904053
:100B2000E1F700C0000025982D982FEF80E792E0B4
:100B3000215080409040E1F700C0000026982E9898
:100B40002FEF80E792E0215080409040E1F700C015
:100B5000000027982F9856985E9825982D982698EB
:100B60002E9827982F98089589EA8093800089E02D
:100B70008093810024982C983F988AB18F7C8AB901
:100B80006E98479A8BB180638BB9769A0E945C0508
:100B90000C94370480E290E0909305018093040167
:100BA0008091C50381110EC00E94961881E0809348
:100BB000C5032FEF83ED90E3215080409040E1F793
:100BC00000C0000064E670E080E40E949C189093EE
:100BD000050180930401892B09F050C064E670E0A0
:100BE00080E00E94F3189093050180930401892B03
:100BF00009F044C064E670E080E00E94F31890932E
:100C0000050180930401892BC9F564E670E08FE348
:100C10000E94F3189093050180930401892B71F5CC
:100C200084E690E00E94481964E670E080E40E9447
:100C30009C189093050180930401892BF9F464E6D4
:100C400070E08CE00E94F3189093050180930401FA
:100C5000892BA1F464E670E080E00E94F318909381
:100C6000050180930401892B49F464E670E08FE369
:100C70000E94F318909305018093040184E690E0AC
:100C80000E944819809104010895611108C0FC0177
:100C90008281882321F08AE991E00E94FB0680E0AE
:100CA00090E008958F3D2CE5920721F0803E9C4511
:100CB00041F010C0FB018281882369F00E94F62672
:100CC00007C0FB018281882331F081E00E946B160E
:100CD00080E0089581E00895CF92DF92EF92FF9235
:100CE0006B017C010E94382656985E9825982D98B5
:100CF00026982E9827982F9890E0FC013197E7309E
:100D0000F105A8F4E35AFF4F0C94E436259A2D9A86
:100D10000EC0259A2D9A269A2E9A09C0259A2D9AA8
:100D200004C0259A2D9A269A2E9A279A2F9AC7019F
:100D3000B601FF90EF90DF90CF90089581E0089585
:100D40000C945206CF93282F30E0F901E053FC4F6A
:100D5000C491F901E05BFB4F2491222359F081EE0D
:100D60000E944C1B8C2F0E944C1B8C2F0E94851CB8
:100D700081EE04C08C2F0E944C1B8C2FCF910C94C1
:100D8000851C0F931F93CF93DF93EC01062FFE0179
:100D90008491882359F19E012F5F3F4F813041F4A8
:100DA000E901F9011491812F0E944C1B812F0DC084
:100DB000823031F4E901F90184910E944C1B0AC090
:100DC000833031F4E901F90184910E94851C02C04D
:100DD0000E94A2062196802F8823C9F2EFE9FFE046
:100DE0003197F1F700C000008150F6CFDF91CF912D
:100DF0001F910F91089560E00C94C1060E9488260F
:100E0000811102C00E94F6260E9411150C94B405AF
:100E10000E9473148091C603811102C00E943A0E91
:100E20008091C60390E001966BE070E00E94D0369E
:100E30008093C6030C943904282F2F7041F0822F21
:100E400090E02A3010F44D9608950697089587E2B1
:100E500090E0089508950C942A070C942B070895A8
:100E60000E94F81F0E942F072FEF84E39CE021507F
:100E700080409040E1F700C000000C946628FF928B
:100E80000F931F93CF93DF938C01FC01C081D1811D
:100E900080912304811113C08281882349F0CE01FF
:100EA0000E942B25F82E682FCE010E94CE2404C06C
:100EB000CE010E94FE24F82EBE018F2D04C0CE016B
:100EC0000E942B25BE010E94FE09EC01B8010E9480
:100ED000A006882309F48AC2B801CE010E94750CCD
:100EE000882309F483C2CC3CFCE5DF0741F4F80118
:100EF0008281882309F47AC20E94521677C2CD3CBF
:100F00008CE5D80708F01EC1C43C9CE5D90761F404
:100F1000F8018281882309F469C20E94FC2582724B
:100F2000E1F40E94671562C2C53CECE5DE0708F0FB
:100F3000C7C0C531FCE5DF0798F0C23CFCE5DF0720
:100F400009F48CC008F492C0F8018281882309F466
:100F50004DC20E94FC25827221F70E944D1546C2A7
:100F6000C2308CE5D80708F452C0F801828188238A
:100F700009F459C00E948826811102C00E94F626F9
:100F80000E949B2690E09093650680936406FE0184
:100F9000E350FC45E231F10530F4EC59FF4F80910C
:100FA00064060C94E43680916406816027C08260F8
:100FB00025C0846023C0806121C080621FC080641E
:100FC0001DC080681BC08460886018C08E7F16C0FA
:100FD0008D7F14C08B7F12C08F7E10C08F7D0EC09E
:100FE0008F7B0CC08F770AC08B7F877F07C087FB02
:100FF000222720F991E0922790FB87F980936406DD
:10100000809164060E949F260E94F81FEFC1C115BF
:101010009CE5D90781F0C130DC45A9F081E08093DF
:10102000CC038093CD03C801DF91CF911F910F9125
:10103000FF900C949E06F8018281882309F4D6C1A2
:101040000E943007D3C1F8018281882309F4CEC100
:101050008091C20481608093C204C8C1F80182817A
:10106000882309F4C3C10E943F15C0C1C631DC45C5
:10107000A9F60E94FC25282FF801828140910801E1
:1010800050910901882379F02A7A91E009F490E0DF
:101090009093C703911102C069E201C065E3CA01E0
:1010A0000E945D270AC08091C703811102C069E2D6
:1010B00001C065E3CA010E9468270E94C92596C144
:1010C000F8018281C83CFCE5DF0731F4882309F48C
:1010D0008DC10E94F3158AC1C93C9CE5D907C8F4AB
:1010E000C63CECE5DE0731F4882309F47FC10E9499
:1010F000AD157CC1C73CDC4530F4882309F476C1CA
:101100000E94811573C1882309F470C10E94DD1506
:101110006DC1CA3C9CE5D90731F4882309F466C146
:101120000E94231663C1CB3CDC4530F4882309F4CC
:101130005DC10E940D165AC1882309F457C10E944F
:101140003D1654C1C43DFCE5DF07C1F4F8018281BE
:10115000882309F44BC10E947A1669317105810513
:10116000910540F00E947A16623271058105910561
:1011700008F4F3CE89E10E946B1638C1C53D8CE5B9
:10118000D80708F086C0F8018281C03DFCE5DF0782
:10119000A1F4882309F42AC10E947A1669307105E6
:1011A0008105910540F00E947A166E307105810527
:1011B000910508F4D2CE89E0DECFC13D9CE5D90788
:1011C000A0F5CE3CECE5DE07A1F4882309F40EC1BE
:1011D0000E947A16623071058105910540F00E94E7
:1011E0007A16653071058105910508F4B6CE82E066
:1011F000C2CFCF3CDC4528F4882309F4F7C081E056
:10120000BACF882309F4F2C00E947A1666307105BD
:101210008105910540F00E947A16683071058105BC
:10122000910508F49ACE86E0A6CFC23D9CE5D90789
:10123000A1F4882309F4DAC00E947A166531710599
:101240008105910540F00E947A166731710581058C
:10125000910508F482CE85E18ECFC33DDC45A0F434
:10126000882309F4C3C00E947A166F307105810586
:10127000910540F00E947A1664317105810591054F
:1012800008F46BCE8FE077CF882309F4AFC088E1F4
:1012900072CFC83DFCE5DF0759F5F801828188234C
:1012A00061F01092CD030E940A289093CB038093A3
:1012B000CA0380E20E94ED1C99C08091CD0388236F
:1012C00021F080E20E94F41C91C08091CA039091A9
:1012D000CB030E941628883C910598F780E20E9473
:1012E000F41C88E20E944C1B88E20E94851C7EC090
:1012F000C93D8CE5D80708F058C0F8018281C63D89
:10130000FCE5DF0751F5882351F01092CC030E94D1
:101310000A289093C9038093C80382E0CBCF0E9430
:10132000FC2585FF05C081E08093CC038093CD032D
:101330008091CC0381110FC08091C8039091C903A3
:101340000E941628883C910530F486E20E944C1BCE
:1013500086E20E94851C82E0B5CFC73DDC4528F4BB
:10136000882309F443C083E206CF81119ACF0E94FB
:10137000FC2581FF05C081E08093CC038093CD03E1
:101380008091CD0381119DCF8091CA039091CB03B1
:101390000E941628883C910508F093CF87E20E94AE
:1013A0004C1B87E20E94851C8CCFCC3DECE5DE0710
:1013B00041F4F80182818823C9F082E00E944E2F17
:1013C00015C0CD3DFCE5DF0739F4F80182818823A3
:1013D00069F00E94F6260AC0CB3DDC4509F01ECE1E
:1013E000F8018281882311F080E0E8CF80E0DF916E
:1013F000CF911F910F91FF900895089596E0799FE6
:10140000F001112494E5899FE00DF11D1124E60FF0
:10141000F11DEE0FFF1FE852FE4F85919491089544
:10142000880F991FFC01EC52FE4F8591949108950D
:10143000CF93DF930E94FE090E94D50BEC0181152A
:1014400020E59207F0F5811530E4930708F029C1F3
:10145000883E910500F5803E910508F0A2C1883ACA
:10146000910570F4853A910508F0A3C0813091058B
:1014700009F497C108F448C1049708F092C144C127
:101480008F3B910508F4A0C0803C910508F43CC155
:10149000805C9109F8C08115904258F4C11581E033
:1014A000D80708F07EC1C03FD10508F42DC1D06532
:1014B00078C1C11590E3D90708F0E9C0CE019F704B
:1014C000E2C0811525E5920708F043C0811534E597
:1014D000930708F0FDC0811542E5940708F5C11592
:1014E00081E5D80708F0E0C02C2F237081E090E060
:1014F00002C0880F991F2A95E2F79C689E0174E04C
:10150000369527957A95E1F72370922BCF70C69583
:10151000C69540E2C49FE0011124C82BD92B41C1DC
:10152000869586959E0123703327C115D34508F013
:10153000C0C040E2849FC0011124C1E0D0E002C0DD
:10154000CC0FDD1F2A95E2F78C2B9D2BEC01DC687C
:1015500028C181152AE5920798F4811539E593078A
:1015600008F0C1C08115964508F4B7C0C11588E5DB
:10157000D80708F4C9C0DC2FCC27C06FD06A11C1CE
:10158000C1159BE5D90708F4BFC0C1152CE5D207EA
:1015900008F4B7C0CE0190568115904208F0B4C04F
:1015A0008D2F8F710E94520CDD27D0628F71D82B46
:1015B000F8C0853A910509F4AAC0863A910509F068
:1015C000A9C0C2E8D0E4EDC0883A910509F4A5C0ED
:1015D000893A910509F4A4C08A3A910509F4A3C097
:1015E0008B3A910509F4A2C08C3A910509F4A1C087
:1015F0008B3B910509F4A0C08C3B910509F49FC079
:101600008D3A910509F49EC0803B910509F49DC077
:101610008E3A910509F49CC08F3A910509F49BC05C
:10162000813B910509F49AC0823B910509F499C068
:10163000833B910509F498C0843B910509F497C058
:10164000853B910509F496C0863B910509F495C048
:10165000873B910509F494C0883B910509F493C038
:10166000893B910509F492C08D3B910509F491C025
:101670008E3B910509F490C08A3B910509F48FC017
:10168000C0E0D4E48EC00E94100AEC018AC0CE01F2
:101690009927D3FF03C0EC01D86C83C0EC01D06C58
:1016A00080C0DF70D06A7DC0DC2FCC27C16FD06ACC
:1016B00078C040E2849FC0011124C1E0D0E002C0A4
:1016C000CC0FDD1F2A95E2F7C82BD92BDA6869C049
:1016D000D82FCC27C46FD06A64C0CF71DD27DC2F30
:1016E000CC27D0625EC08F70806E90E0906A24E05C
:1016F000D695C7952A95E1F7CF709C013C2BE9015F
:1017000050C0DD27D0664DC0C0E0D0E04AC0C1E87F
:10171000D0E447C0C3E8D0E444C0C2EED4E441C042
:10172000C9EED4E43EC0CAEED4E43BC0C5EBD4E479
:1017300038C0C6EBD4E435C0C3EBD4E432C0C4EB4C
:10174000D4E42FC0C7EBD4E42CC0CCECD4E429C043
:10175000CDECD4E426C0C3E8D5E423C0CAE8D5E480
:1017600020C0C2E9D5E41DC0C4E9D5E41AC0C1E275
:10177000D6E417C0C3E2D6E414C0C4E2D6E411C074
:10178000C5E2D6E40EC0C6E2D6E40BC0C7E2D6E49A
:1017900008C0CFE6D4E405C0C0E7D4E402C0CAE282
:1017A000D6E4CE01DF91CF9108958238910549F1B9
:1017B000B0F48133910509F458C048F48932910599
:1017C00009F44EC08A32910509F454C00895853356
:1017D000910509F440C08933910599F00895833E3D
:1017E000910529F138F4803E910591F0823E9105F2
:1017F000A1F00895863E9105F9F0873E910531F1FB
:1018000008952091640620FD3AC021FD38C0089556
:101810008091640680FD35C032C08091640682FFED
:1018200032C08091640684FD30C083EE39C080915F
:10183000640682FD28C0F5CF8091640683FF27C02F
:101840008091640684FD21C087EE2AC080916406E1
:1018500083FD1DC0F5CF8091640685FD1AC01BC0B5
:101860008091640685FD17C014C08091640686FDD2
:1018700014C015C08091640686FD11C00EC080EEB4
:101880000FC089E30DC082EE0BC080E009C086EE78
:1018900007C089E205C085E303C08AE201C081E395
:1018A00090E008959091640692FF0DC0282F287152
:1018B000283019F4877F846006C0282F24712430D3
:1018C00011F48B7F886093FF0DC0282F2871283179
:1018D00019F4877E846106C0282F2471243111F405
:1018E0008B7E886194FD877E0895CF93DF9381304E
:1018F00020E8920778F0FB012281222359F0EC01C5
:101900000E948E0C0E949C0CCE019F770E94640D59
:101910000E94180D81E0DF91CF9108958091CE0350
:10192000811109C08CE090E00E9446378093CF037C
:1019300081E08093CE030895E0910801F0910901C0
:1019400080818093F40481FF03C081EE0E94851C96
:101950008091F40485FF03C085EE0E94851C809170
:10196000F40480FF03C080EE0E94851C8091F40483
:1019700084FF03C084EE0E94851C8091F40482FFE2
:1019800003C082EE0E94851C8091F40486FF03C090
:1019900086EE0E94851C8091F40483FF03C083EED1
:1019A0000E94851C8091F40487FF03C087EE0E948B
:1019B000851C8091CF03823001F1A8F48823C9F0FF
:1019C000813079F580EE0E944C1B81EE0E944C1B09
:1019D00088E10E944C1B88E10E94851C81EE0E94D8
:1019E000851C80EE1CC0843081F08530D1F486EEF9
:1019F00001C082EE0E944C1B14C082EE0E944C1B60
:101A000087E50E944C1B87E50AC086EE0E944C1BAE
:101A100086EE0E94851C88E10E944C1B88E10E9492
:101A2000851C8FE39CE90197F1F700C00000089541
:101A30008091CF03813049F030F0823021F0853041
:101A400051F486EE06C082EE04C08CE20E944C1B6C
:101A50008CE20E94851C8091F40481FF03C081EE1A
:101A60000E944C1B8091F40485FF03C085EE0E9408
:101A70004C1B8091F40480FF03C080EE0E944C1B3D
:101A80008091F40484FF03C084EE0E944C1B80917B
:101A9000F40482FF03C082EE0E944C1B8091F40488
:101AA00086FF03C086EE0E944C1B8091F40483FFE6
:101AB00003C083EE0E944C1B8091F40487FF03C097
:101AC00087EE0C944C1B0895EF92FF921F93CF93D7
:101AD000DF937C01CCE0D0E097010C2E02C036955C
:101AE00027950A94E2F7122F1F70812F0E941C077E
:101AF0000E944C1B812F0E941C070E94851C24976A
:101B0000CC3F8FEFD80741F7DF91CF911F91FF9026
:101B1000EF900895CF92DF92EF92FF920F931F9371
:101B2000CF93DF93E82FF82F711103C0682F782F20
:101B30007EC0062F10E0C72FD0E0E82EF12CC801A0
:101B40006BE270E00E94BC369B0145ED4203B001A0
:101B5000439F700D1124060F171F86E0809FB00170
:101B6000819F700D11244FEF50E0CA018C1B9D0B1B
:101B70008E9DD0018F9DB00D9E9DB00D11248B2F99
:101B80006C9F80016D9F100D7C9F100D1124012F03
:101B900011276A01C01AD10ACE9C8001CF9C100D7A
:101BA000DE9C100D11246A01C61AD70ACC9EB00122
:101BB000CD9E700DDC9E700D1124672F7727461B7C
:101BC000570B4E9DE0014F9DD00D5E9DD00D112411
:101BD0007D2F2230310599F04CF421153105C9F0E3
:101BE00021303105A1F47E2FE12F13C023303105C0
:101BF00051F02430310559F4ED2F7B2F06C0EB2F27
:101C00008D2F7F2F06C0712FEB2F8F2F02C07B2FC0
:101C1000812FF0E0E053FB4F6491E72FF0E0E053B9
:101C2000FB4F7491E82FF0E0E053FB4F8491DF917C
:101C3000CF911F910F91FF90EF90DF90CF9008957B
:101C400088E090E00C944E37AB01BC0188E090E056
:101C50000C946C37E5EFF4E08DE080831092F6048D
:101C60008FEF82838383148260817181828193816B
:101C70000C94240EE0914803F09149030994E091FB
:101C80004403F09145030994E0914603F091470322
:101C9000099440E060E080E00C94440EE5EFF4E04D
:101CA0006081862F881F8827881F6091F604660F41
:101CB000682B728183810E948A0D962F672F482F8F
:101CC000892F0C94440EDF92EF92FF920F931F9393
:101CD000CF93DF938091F504881F8827881F909108
:101CE000F604492F440F242F282B97FB332730F974
:101CF000C9018C549F4F68E671E00E94D036821B68
:101D0000930B8038910514F09A9505C081384FEFF8
:101D100094070CF4939597FD039695958795959563
:101D20008795C82F8091F704281B310937FF02C01F
:101D30002D5F3F4F3595279535952795D22FD0901C
:101D4000F8049CE1E92E91E0F92E00E010E0F701A3
:101D5000208122952F706091F504962F991F992765
:101D6000991F6091F604660F692B2C9F600D11245A
:101D70007091F7042D9F700D11248D2D0E948A0DF6
:101D8000472F282FC8010E943F0E0F5F1F4FF4E01E
:101D9000EF0EF11C00331105D1F6DF91CF911F91A9
:101DA0000F91FF90EF90DF900895AF92BF92CF9286
:101DB000DF92EF92FF920F931F93CF93DF931F92C7
:101DC000CDB7DEB7D82E2091F504221F2227221F7F
:101DD0008091F604982F990FB22EB92A87FB882795
:101DE00080F9EB2DF82FCF018C549F4F68E671E0FE
:101DF0000E94D0369C012E1B3F0B37FF02C02D5F87
:101E00003F4F3595279535952795A22EC090F7041D
:101E10000091D6031091D7032091D8033091D903B4
:101E20009091F904992359F0692F70E08AE090E0CD
:101E30000E94D036CB01770FAA0BBB0B04C08AE0FF
:101E400090E0A0E0B0E080239123A223B323892B6C
:101E50008A2B8B2B41F40E94363760E370E00E949E
:101E6000D036082F01C00FEFE12CF12C10E0D1107B
:101E700003C0E016F106A9F40E94363783706B2D7B
:101E80008A9D600D112469830E94363769817C2DFB
:101E90008091F8040E948A0D472F282FC7010E94C5
:101EA0003F0E8FEFE81AF80A80E3E816F104F9F61E
:101EB0000F90DF91CF911F910F91FF90EF90DF90E6
:101EC000CF90BF90AF900895CF92DF92EF92FF92A4
:101ED0001F93CF93DF938091D6039091D703A09166
:101EE000D803B091D9030090F90404C0880F991F5A
:101EF000AA1FBB1F0A94D2F7182F8AE1C82E81E0CF
:101F0000D82EC0E0D0E09FE3E92EF12CF6018081CD
:101F10008F3FE1F0FE01E650FB4F8081F4E08F9FA0
:101F2000C00111248034910524F4B701681B790B9A
:101F300002C060E070E0610F7FEF8091F8040E94C2
:101F40008A0D472F282FCE010E943F0E219624E0B4
:101F5000C20ED11CC033D105C9F6DF91CF911F91BC
:101F6000FF90EF90DF90CF900895CF92DF92EF92A5
:101F7000FF920F931F93CF93DF938091D60390919D
:101F8000D703A091D803B091D9030090F90404C0FD
:101F9000880F991FAA1FBB1F0A94D2F7D82EC09092
:101FA000F8040AE111E0C0E0D0E08FE3E82EF12C64
:101FB000F80180818F3FF9F0FE01E650FB4F208150
:101FC000F4E02F9F90011124203431052CF4C70137
:101FD000821B930B9C0102C020E030E0F80161817C
:101FE0006D0D620F7FEF8C2D0E948A0D472F282FD9
:101FF000CE010E943F0E21960C5F1F4FC033D105CA
:10200000B9F6DF91CF911F910F91FF90EF90DF9084
:10201000CF900895CF92DF92EF92FF920F931F938C
:10202000CF93DF938091D6039091D703A091D803EB
:10203000B091D9030090F90404C0880F991FAA1F1A
:10204000BB1F0A94D2F7D82EC090F8040AE111E021
:10205000C0E0D0E08FE3E82EF12CF80180818F3FC3
:10206000F9F0FE01E650FB4F2081F4E02F9F900134
:102070001124203431052CF4C701821B930B9C01E1
:1020800002C020E030E0F80162816D0D620F7FEF49
:102090008C2D0E948A0D472F282FCE010E943F0EC3
:1020A00021960C5F1F4FC033D105B9F6DF91CF9158
:1020B0001F910F91FF90EF90DF90CF9008952F9296
:1020C0003F924F925F926F927F928F929F92AF92C8
:1020D000BF92CF92DF92EF92FF920F931F93CF9315
:1020E000DF933090F7042090F8046091D60370914C
:1020F000D7038091D8039091D9030E9431352BEDFD
:102100003FE049E450E40E94FE3520E030E040E04A
:102110005CE30E94FE356B017C010E94843420E068
:1021200030E040E05DE30E94FE352B013C01C70139
:10213000B6010E946B3620E030E040EE52E40E948F
:1021400089344B015C01CCE1D1E000E010E0688112
:1021500070E080E090E00E94333520E030E040E025
:1021600052E40E941734A30192010E94FE356B01D4
:102170007C01FE013197608170E080E090E00E9478
:10218000333520E030E040EE52E40E941734A501E0
:1021900094010E94FE359B01AC01C701B6010E946B
:1021A000183420E030E044E353E40E94FE356B0134
:1021B0007C018091F504881F8827881F9091F60480
:1021C000292F220F622F682B97FB772770F9072E94
:1021D000000C880B990B0E9433359B01AC01C701A1
:1021E000B6010E9418340E940235732D822D0E9480
:1021F0008A0D472F282FC8010E943F0E0F5F1F4FE7
:1022000024960033110509F0A2CFDF91CF911F91E1
:102210000F91FF90EF90DF90CF90BF90AF909F9085
:102220008F907F906F905F904F903F902F90089588
:102230002F923F924F925F926F927F928F929F92D6
:10224000AF92BF92CF92DF92EF92FF920F931F93C4
:10225000CF93DF93CDB7DEB728970FB6F894DEBFE4
:102260000FBECDBF8091F7048D839091F8049E83BB
:102270006091D6037091D7038091D8039091D903D0
:102280000E9431352BED3FE049E450E40E94FE35D9
:1022900020E030E040E05CE30E94FE356B017C0111
:1022A0000E9484342B013C01C701B6010E946B36A9
:1022B00069837A838B839C83ECE1F1E0F887EF8379
:1022C00000E010E0EF81F88531972080EF81F885FC
:1022D000B0803090F904332079F0632D70E080E015
:1022E00090E00E94333520E030E040EC5FE30E9454
:1022F000FE356B017C0106C0C12CD12C90ECE92E7F
:102300009FE3F92E6B2D70E080E090E00E94333562
:1023100020E030E040E052E40E9417349B01AC0121
:10232000C701B6010E94FE35A30192010E94FE354D
:102330004B015C01332079F0632D70E080E090E088
:102340000E94333520E030E040EC5FE30E94FE3530
:102350006B017C0106C0C12CD12C80ECE82E8FE3F0
:10236000F82E622D70E080E090E00E94333520E08E
:1023700030E040EE52E40E9417349B01AC01C701EB
:10238000B6010E94FE3529813A814B815C810E9411
:10239000FE359B01AC01C501B4010E9418346B01EC
:1023A0007C018091F504881F8827881F9091F6048E
:1023B000292F220F622F682B97FB772770F9072EA2
:1023C000000C880B990B0E9433359B01AC01C701AF
:1023D000B6010E9418340E9402357D818E810E94D0
:1023E0008A0D472F282FC8010E943F0E0F5F1F4FF5
:1023F0008F819885049698878F830033110509F0A3
:1024000061CF28960FB6F894DEBF0FBECDBFDF9127
:10241000CF911F910F91FF90EF90DF90CF90BF90E1
:10242000AF909F908F907F906F905F904F903F9074
:102430002F9008952F923F924F925F926F927F92CA
:102440008F929F92AF92BF92CF92DF92EF92FF92C4
:102450000F931F93CF93DF9300D000D01F92CDB77F
:10246000DEB72091F7042A838091F8048B83609172
:10247000D6037091D7038091D8039091D9030E941D
:1024800031352BED3FE049E450E40E94FE3520E079
:1024900030E040E05CE30E94FE356B017C010E946D
:1024A00084342B013C01C701B6010E946B364B01FD
:1024B0005C01ACE1B1E0BD83AC8300E010E0EC81F5
:1024C000FD813197B081B983EC81FD81308020900E
:1024D000F904222069F0622D70E0660F771F072E45
:1024E000000C880B990B0E9433356B017C0105C0F1
:1024F000C12CD12CE12C20E4F22E632D70E080E081
:1025000090E00E94333520E030E040E052E40E9449
:1025100017349B01AC01C701B6010E94FE35A3012F
:1025200092010E94FE356B017C01222021F0312CAA
:10253000220C331C03C082E0282E312CF9816F2F2E
:1025400070E080E090E00E94333520E030E040EE23
:1025500052E40E9417340E94FB349B0177FF04C0B1
:1025600022273327261B370B82E490E0821B930B34
:10257000289EB001299E700D389E700D1124072EE3
:10258000000C880B990B0E943335A50194010E9421
:10259000FE359B01AC01C701B6010E9418346B01E6
:1025A0007C018091F504881F8827881F9091F6048C
:1025B000292F220F622F682B97FB772770F9072EA0
:1025C000000C880B990B0E9433359B01AC01C701AD
:1025D000B6010E9418340E9402357A818B810E94D4
:1025E0008A0D472F282FC8010E943F0E0F5F1F4FF3
:1025F0008C819D8104969D838C830033110509F0A5
:102600005ECF0F900F900F900F900F90DF91CF91B2
:102610001F910F91FF90EF90DF90CF90BF90AF9000
:102620009F908F907F906F905F904F903F902F90F2
:1026300008952F923F924F925F926F927F928F9266
:102640009F92AF92BF92CF92DF92EF92FF920F9341
:102650001F93CF93DF9300D01F92CDB7DEB72090AA
:10266000F7048091F80489836091D6037091D703B1
:102670008091D8039091D9030E94313520E030E059
:1026800040E85BE30E94FE3520E030E040E653E4A2
:102690000E94FE352B013C01ECE1F1E0FB83EA8373
:1026A00000E010E0EA81FB8131973080EA81FB8114
:1026B000E080F090F904FF2079F06F2D70E080E069
:1026C00090E00E94333520E030E040EC5FE30E9470
:1026D000FE354B015C0106C0812C912C90ECA92E9B
:1026E0009FE3B92E6E2D70E080E090E00E943335BC
:1026F00020E030E040E052E40E9417340E94FB34B6
:102700009B0177FF04C022273327261B370BB90113
:10271000330F880B990B0E9433359B01AC01C50127
:10272000B4010E94FE352EE23DEB4BEB53EB0E94D1
:10273000FE354B015C01FF2079F06F2D70E080E0E9
:1027400090E00E94333520E030E040EC5FE30E94EF
:10275000FE356B017C0106C0C12CD12C80ECE82E2B
:102760008FE3F82E632D70E080E090E00E94333517
:10277000A30192010E9417349B01AC01C701B6016D
:102780000E94FE359B01AC01C501B4010E941734C3
:102790006B017C018091F504881F8827881F909128
:1027A000F604292F220F622F682B97FB772770F9E9
:1027B000072E000C880B990B0E9433359B01AC014E
:1027C000C701B6010E9418340E940235722D89811A
:1027D0000E948A0D472F282FC8010E943F0E0F5FCD
:1027E0001F4F8A819B8104969B838A830033110546
:1027F00009F058CF0F900F900F90DF91CF911F915C
:102800000F91FF90EF90DF90CF90BF90AF909F908F
:102810008F907F906F905F904F903F902F90089592
:10282000CF92DF92FF920F931F93CF93DF931F926C
:10283000CDB7DEB7F82E0091D6031091D7032091C3
:10284000D8033091D9039091F904992359F0692F55
:1028500070E08AE090E00E94D036AB01770F660B03
:10286000770B04C04AE050E060E070E04023512361
:1028700062237323452B462B472B39F40E943637AE
:1028800060E370E00E94D03601C08FEF00E010E0FE
:10289000C82ED12CF11003C00C151D0581F40E9427
:1028A000363789830E943637782F69818091F80402
:1028B0000E948A0D472F282FC8010E943F0E0F5FEC
:1028C0001F4F0033110531F70F90DF91CF911F910A
:1028D0000F91FF90DF90CF900895089508950E9482
:1028E0006D140C946E144091F50440FD0AC00E94D2
:1028F000490E0E946F148091F50481708093070146
:1029000008958091D003843120F48F5F8093D003A9
:1029100008958091D6039091D703A091D803B091E8
:10292000D9030196A11DB11D8093D6039093D703BF
:10293000A093D803B093D9038091D2039091D3038D
:10294000A091D403B091D5038F3F2FEF9207A20738
:10295000B20759F00196A11DB11D8093D203909347
:10296000D303A093D403B093D5038091D103EAEFAE
:10297000F4E090819F3F61F09E3F41F4282F30E0CA
:102980002230310514F0815001C080E09F5F9083B8
:10299000319695E0EA32F90761F78093D103E42F8D
:1029A000E695EF7380910601E81307C081E09091EE
:1029B0000701913019F480E001C081E08170E0935B
:1029C000060191E0909307014E2F50E0FA013197F4
:1029D000EB30F10520F5EA58FF4F0C94E4360E94E5
:1029E0004E0E1DC00E945F101AC00E94630E17C0D9
:1029F0000E94D50E14C00E94640F11C00E94B50F32
:102A00000EC00E940A100BC00E94181108C00E943C
:102A10001A1205C00E94191302C00E9410140C94CF
:102A20006F14E0914203F09143030995EAEFF4E05B
:102A30008FEF819395E0EA32F907D9F70E94882653
:102A4000811104C00E94F6260E942A0E0E94200EC8
:102A50006093F5047093F6048093F7049093F80460
:102A60006E7761F40E942A0E0E94200E6093F50496
:102A70007093F6048093F7049093F8040895E5EFBB
:102A8000F4E08081982F909590FB80F9808360819D
:102A90007181828193810C94240E9091F504892F89
:102AA00086958F5F8F7391788C3018F4880F892BFF
:102AB00002C0892F82608093F5046091F5047091C3
:102AC000F6048091F7049091F8040C94240E9091F0
:102AD000F504892F8695815C8F739178882319F08E
:102AE000880F892B02C0892F86618093F50460913D
:102AF000F5047091F6048091F7049091F8040C9419
:102B0000240E8091F504982F991F9927991F809181
:102B1000F604880F892B90E008968F3F910519F0F5
:102B200014F08FEF90E02091F50480FB27F92093BB
:102B3000F504282F26958091F6048078822B90FB4F
:102B400087F98093F6046091F5047091F604809102
:102B5000F7049091F8040C94240E8091F504982FBA
:102B6000991F9927991F8091F604880F892B90E06F
:102B7000089797FF02C080E090E08F3F910519F021
:102B800014F08FEF90E02091F50480FB27F920935B
:102B9000F504282F26958091F6048078822B90FBEF
:102BA00087F98093F6046091F5047091F6048091A2
:102BB000F7049091F8040C94240E8091F70490E0AF
:102BC00008968F3F910519F014F08FEF90E08093F5
:102BD000F7046091F5047091F6048091F7049091E8
:102BE000F8040C94240E8091F70490E0089797FF66
:102BF00002C080E090E08F3F910519F014F08FEF54
:102C000090E08093F7046091F5047091F604809150
:102C1000F7049091F8040C94240E8091F80490E04D
:102C200008968F3F910519F014F08FEF90E0809394
:102C3000F8046091F5047091F6048091F704909186
:102C4000F8040C94240E8091F80490E0089797FF04
:102C500002C080E090E08F3F910519F014F08FEFF3
:102C600090E08093F8046091F5047091F6048091EF
:102C7000F7049091F8040C94240E8091F90490E0EC
:102C800001968430910514F083E090E08093F9047C
:102C90006091F5047091F6048091F7049091F80426
:102CA0000C94240E8091F90490E0019797FF02C0E4
:102CB00080E090E08430910514F083E090E0809310
:102CC000F9046091F5047091F6048091F7049091F5
:102CD000F8040C94240EE5EFF4E08F73982F990F0D
:102CE00080818178892B8083608171818281938149
:102CF0000C94240E6091F50466956F7370E080E08B
:102D000090E0089567E784E70C945718CF930E94EA
:102D1000961884E70E94DC1687E70E94DC16C0E064
:102D200021E041E061E08C2F0E946E17CF5FC0333D
:102D3000B9F767E784E7CF910C946A18EAE4F6E004
:102D40006083418324E630E042E050E0BF01880F19
:102D50000C946C19EF92FF921F93CF93DF937B013A
:102D6000182F110FC0E0D0E08C2F8C5D80934A06A5
:102D700020E030E0F901EC0FFD1FEE0DFF1D80811A
:102D8000F901E65BF94F81832F5F3F4F2031310519
:102D900089F724E630E041E150E06AE476E0812FF3
:102DA0000E946C196096C039D105F1F6DF91CF9180
:102DB0001F91FF90EF900895CF93DF93C82F4BE0C2
:102DC0006DEF0E949E1640E06AE08C2F0E949E16D6
:102DD0008FE39CE90197F1F700C0000040E060E05C
:102DE0008C2F0E949E1640E061E08C2F0E949E1660
:102DF00040E066E08C2F0E949E1640E06DEF8C2F25
:102E00000E949E16D0E040E06D2F8C2F0E949E16EF
:102E1000DF5FD231C1F740E06D2F8C2F0E949E16EC
:102E2000DF5FD432C1F740E06D2F8C2F0E949E16D9
:102E3000DF5FD43BC1F74BE06DEF8C2F0E949E16F5
:102E400041E06AE08C2F0E949E1640E06DEF8C2FCF
:102E5000DF91CF910C949E168033910520F5880F59
:102E6000991F880F991FFC01E652FE4F5281338152
:102E7000808183707181E0E98E9FC0011124865D9D
:102E80009A4FFC01E70FF11DB4976083FC01E50F39
:102E9000F11DB4974083830F911DFC01B4972083EB
:102EA00081E08093FF030895FF920F931F93CF93C8
:102EB000DF93182F062FF42EC0E0D0E02F2D402FE7
:102EC000612FCE010E942C172196C033D105B1F796
:102ED000DF91CF911F910F91FF9008954F925F92D4
:102EE0007F928F929F92AF92BF92CF92DF92EF929A
:102EF000FF920F931F93CF93DF93362F54E0859F5C
:102F0000C0011124FC01E652FE4FA081A3707A2E6D
:102F1000618170E0CB0184978C0197FF02C0095F4B
:102F20001F4FA3E015950795AA95E1F7628170E020
:102F30007B0154E2E51AF108E701F7FC279673E0FC
:102F4000D595C7957A95E1F7638170E04B01E4E28E
:102F50008E1A9108F40197FC37962F0153E055948F
:102F600047945A95E1F768E0A62EB12CB5010E946E
:102F7000D0366C01C701B5010E94D0367C01C40176
:102F8000B5010E94D036A72DB0E01127DD243323F0
:102F9000A1F032E13A9FB0013B9F700D1124060F62
:102FA000171F05521C4F61E070E001C0660FCA9404
:102FB000EAF7F8013081632B14C032E13A9FB00187
:102FC0003B9F700D1124060F171F05521C4F61E027
:102FD00070E001C0660FCA94EAF76095F80130818D
:102FE00063236083DD27FF2432E1442391F03A9F7D
:102FF000A0013B9F500D1124C40FD51FC552DC4FBB
:1030000041E050E001C0440FEA94EAF73881432BD5
:1030100012C03A9FA0013B9F500D1124C40FD51F31
:10302000C552DC4F41E050E001C0440FEA94EAF79A
:103030004095388143234883A2015527992792E17F
:103040009A9FF0019B9FF00D1124E40FF51FE552AC
:10305000FC4F222361F021E030E0A90102C0440FBF
:10306000551F8A95E2F7CA019081892B0CC021E097
:1030700030E0A90102C0440F551F8A95E2F7CA014A
:10308000809590818923808381E08093DA03DF91AA
:10309000CF911F910F91FF90EF90DF90CF90BF9055
:1030A000AF909F908F907F905F904F900895CF93B7
:1030B0009091FF03992351F0C62F6AE275E00E94B8
:1030C000AA166AEB75E08C2F0E94AA161092FF03D5
:1030D000CF910895EF92FF920F931F93CF93DF93B9
:1030E0009091DA039923D9F0162F082F8BEDE82E53
:1030F00083E0F82EC0E0D0E0F70141917F016C2F12
:10310000802F0E949E16FE01E552FC4F42896C2FD3
:10311000812F0E949E162196C231D10569F7DF9159
:10312000CF911F910F91FF90EF9008951092B900E9
:103130008CE08093B8000895EF92FF920F931F9355
:10314000CF93DF93182FEB011092BC0084EA809399
:10315000BC000E940A287C019091BC0097FD0EC023
:10316000CF3F8FEFD807C1F30E940A288E199F091D
:103170008C179D0788F38EEF9FEF2EC09091B900BA
:10318000987F983041F09091B900987F903119F074
:103190008FEF9FEF21C01093BB0084E88093BC00A9
:1031A0000E940A288C019091BC0097FD0CC0CF3F73
:1031B0008FEFD807C1F30E940A28801B910B8C1750
:1031C0009D0788F3D8CF8091B900887F883111F0AE
:1031D0008034F1F680E090E0DF91CF911F910F9164
:1031E000FF90EF9008950F931F93CF93DF93EB0120
:1031F0008093BB0084E88093BC000E940A288C0165
:103200009091BC0097FD0EC0CF3F8FEFD807C1F360
:103210000E940A28801B910B8C179D0788F38EEF64
:103220009FEF0CC02091B900287F81E090E0283208
:1032300011F480E090E0919581959109DF91CF9113
:103240001F910F9108950F931F93CF93DF93EC017C
:1032500084E88093BC000E940A288C019091BC00F5
:1032600097FD0EC0CF3F8FEFD807C1F30E940A2809
:10327000801B910B8C179D0788F38EEF9FEF03C087
:103280008091BB0090E0DF91CF911F910F91089545
:103290000F931F93CF93DF93EC0184E98093BC00DD
:1032A0000E940A288C019091BC0094FF0EC0CF3F71
:1032B0008FEFD807C1F30E940A28801B910B8C174F
:1032C0009D0788F38EEF9FEF02C080E090E0DF91D2
:1032D000CF911F910F910895CF92DF92EF92FF92BD
:1032E0000F931F93CF93DF936B017A018901B9018B
:1032F0000E949C18FC01892BC9F4E601EC0CFD1C12
:10330000CE15DF0541F0B80189910E94F318FC0148
:10331000892BB1F30BC0C801DF91CF911F910F91A1
:10332000FF90EF90DF90CF900C944819CF01DF9180
:10333000CF911F910F91FF90EF90DF90CF90089564
:1033400090930504809304040895E0910404F0919F
:103350000504309721F00190F081E02D099480E080
:103360000895E0910404F0910504309799F02091BC
:103370001901222359F02091640627FF07C0DC01C0
:103380002C9111962C93119725E02C930280F381B8
:10339000E02D09940895E0910404F091050430971C
:1033A00039F022E0DC012C930480F581E02D0994B2
:1033B000089520910204309103048217930771F05D
:1033C0009093030480930204E0910404F0910504B7
:1033D000309721F00680F781E02D0994089520911F
:1033E0000004309101048217930771F09093010457
:1033F00080930004E0910404F0910504309721F0DB
:103400000084F185E02D0994089585B7806885BF13
:1034100085B7806885BF089508950E94051A0C94A9
:103420000C1A81E008950E9401280E943B040C942C
:103430009828CF92DF92EF92FF920F931F93CF9332
:10344000DF93CDB7DEB72B970FB6F894DEBF0FBE74
:10345000CDBF0E940D050E94111A811111C08FEF7E
:1034600089838A831B820E940A288160782F9D832A
:103470008C8349815A816B818D810E94FD1A56C0CF
:1034800087E0C82E84E0D82E00E010E0E02E802FE8
:103490000E945505F60141916F01F42EF82631F492
:1034A0000F5F1F4F0E30110589F7D9CF9091C204DD
:1034B00091FF04C08B870E945B058B8520E030E084
:1034C0004F2D50E0922FBA01022E02C075956795DC
:1034D0000A94E2F760FF24C02E83EF8221E030E0FF
:1034E000690102C0CC0CDD1C9A95E2F790E08C21BA
:1034F0009D21892B09F420E028870E940A288160F9
:10350000782F9A8789874E815F8168858A850E9496
:10351000FD1AF801E95FFB4F8081C826C08206C012
:103520002F5F3F4F2630310569F6BACF0E942B2A14
:10353000109106040E94A5191817A1F00E94A51960
:10354000809306042B960FB6F894DEBF0FBECDBF56
:10355000DF91CF911F910F91FF90EF90DF90CF906F
:103560000C942D072B960FB6F894DEBF0FBECDBF7F
:10357000DF91CF911F910F91FF90EF90DF90CF904F
:103580000895DC0111962C9111978C91682F70E0B1
:1035900041E050E001C0440F8A95EAF712968C9101
:1035A000129730E0882329F0809125048823E9F0E0
:1035B00006C0F901EB5EFB4F90819423B1F086E0E9
:1035C000829FF001839FF00D1124E60FF71FEE0F8D
:1035D000FF1FE656FD4F808191818D939C93F901E9
:1035E000EB5EFB4F8081482B06C0F901EB5EFB4F81
:1035F00040958081482340830895CF93DF93CDB7D2
:10360000DEB72B970FB6F894DEBF0FBECDBF942F59
:103610004F83252F588769877A878B874A855B85F3
:10362000452B21F02F3F09F59F3FF9F4DE0111965C
:1036300086E0FD0111928A95E9F785E0FE01379653
:1036400001900D928A95E1F749815A816B817C81C5
:103650008D819E810E949F222B960FB6F894DEBF2B
:103660000FBECDBFDF91CF910895CE0107960E9486
:10367000C11ADCCFFC01808191810E946A2592955C
:103680009F70963041F48091250491E089278093C2
:103690002504909324040895CF93DF931F92CDB710
:1036A000DEB7882309F42DC1682F8238C1F40E9447
:1036B000A51981FD26C169E3809108019091090156
:1036C0000E945D270E94C9252FEF81EE94E02150D2
:1036D00080409040E1F700C0000069E319C08338E2
:1036E00011F50E94A51980FD0CC163E580910801C8
:1036F000909109010E945D270E94C9252FEF81EE5C
:1037000094E0215080409040E1F700C0000063E564
:1037100080910801909109010E9468270F90DF9124
:10372000CF910C94C9258438C1F40E94A51982FD5B
:10373000E8C067E480910801909109010E945D272B
:103740000E94C9252FEF81EE94E0215080409040E7
:10375000E1F700C0000067E4DBCF8CEF860F813A11
:1037600070F4862F69830E94612C69818111C9C020
:1037700080910801909109010E945D27CFCF80E2DE
:10378000860F883048F4677081E001C0880F6A9521
:10379000EAF70E94FF25C2CF8BE5860F833088F4BD
:1037A000653A29F0663A31F083E890E005C081E897
:1037B00090E002C082E890E00F90DF91CF910C94EE
:1037C000D91988E5860F873108F091C0683A09F465
:1037D00045C0693A09F445C06A3A09F445C06B3AF4
:1037E00009F445C06C3A09F445C06B3B09F445C087
:1037F0006C3B09F445C06D3A09F445C0603B09F4DF
:1038000045C06E3A09F445C06F3A09F445C0613BC2
:1038100009F445C0623B09F445C0633B09F445C067
:10382000643B09F445C0653B09F445C0663B09F4B7
:1038300045C0673B09F445C0683B09F445C0693B96
:1038400009F445C06D3B09F445C06E3B09F445C021
:103850006A3B09F445C080E090E044C082EE90E00D
:1038600041C089EE90E03EC08AEE90E03BC085EB1F
:1038700090E038C086EB90E035C083EB90E032C03A
:1038800084EB90E02FC087EB90E02CC08CEC90E0B4
:1038900029C08DEC90E026C083E891E023C08AE83F
:1038A00091E020C082E991E01DC084E991E01AC056
:1038B00081E292E017C083E292E014C084E292E0D9
:1038C00011C085E292E00EC086E292E00BC087E272
:1038D00092E008C08FE690E005C080E790E002C06B
:1038E0008AE292E00F90DF91CF910C94EF19603F44
:1038F00040F0862F0E9433290F90DF91CF910C94D6
:10390000202A0F90DF91CF910895882309F464C095
:10391000823879F40E94A51981FF5EC069E3809125
:103920000801909109010E945D270E94C92569E361
:1039300010C08338B1F40E94A51980FF4DC063E523
:1039400080910801909109010E945D270E94C9257C
:1039500063E580910801909109010E9468270C9409
:10396000C925843879F40E94A51982FF35C067E41F
:1039700080910801909109010E945D270E94C9254C
:1039800067E4E7CF9CEF980F913A10F4682FE1CFEE
:1039900090E2980F983050F4877091E001C0990F31
:1039A0008A95EAF7892F0E940526D9CF9BE5980FC3
:1039B000933020F480E090E00C94D91998E5980FAA
:1039C000973120F480E090E00C94EF19803F20F0D4
:1039D0000E949B290C94202A0895882321F00E949C
:1039E000FF250C94C9250895882321F00E940526FF
:1039F0000C94C92508958F929F92AF92BF92DF9247
:103A0000EF92FF920F931F93CF93DF937C01D62FFA
:103A1000C72FFC01058102950F70128111110E94C0
:103A20001C260E94C225882379F0112369F080E2C8
:103A30008D0F883048F082E00E94AB250E94C2259D
:103A400091E0D82ED92601C0D12CAC2EA2948FE0C3
:103A5000A822B12CF501EF57FF4F0C94E4368C2FC0
:103A6000807FCF70882311F0C295C07F112399F019
:103A7000CC2309F4C8C180E28D0F883010F0D11139
:103A800004C08C2F0E94FF2503C08C2F0E940F269C
:103A90000E94C925B8C18D2F0E94851CCC2309F432
:103AA0002EC280E28D0F883010F0D11104C08C2F0F
:103AB0000E94052603C08C2F0E9415260E94C9254E
:103AC0001EC28C2F807FCF70803211F0C295C07FD4
:103AD000DD2319F0D130C9F021C0112371F000238A
:103AE00041F0013031F40E9435268C2B0E942F26A4
:103AF00006C20E9435268C2B3FC1002319F00130ED
:103B000009F4FDC10E94322611C0112321F00230B8
:103B100008F0F5C107C00111F2C108C0112321F05E
:103B2000011171C18C2F28C101117EC18C2F2AC1B6
:103B30008C2F86958695837090E0009719F00197F9
:103B400061F0DDC1112321F08D2F9C2F937002C0F5
:103B500080E090E00E94D919E2C1112321F08D2F5D
:103B60009C2F937002C080E090E00E94EF19D7C1B3
:103B70001123F9F0D53F51F0D63F71F0D43FA9F4AD
:103B800080915E0690915F0681600BC080915E0619
:103B900090915F06826005C080915E0690915F06FD
:103BA000846090935F0680935E068D2F0E94332978
:103BB0001EC0D53F51F0D63F71F0D43FA9F480919B
:103BC0005E0690915F068E7F0BC080915E0690919D
:103BD0005F068D7F05C080915E0690915F068B7FAA
:103BE00090935F0680935E068D2F0E949B290E9412
:103BF000202A95C18C2F837009F050C011118BC100
:103C00008D2F829586958770880F880F9D2F9F70C6
:103C1000892E912CA12CB12C082E04C0880C991C43
:103C2000AA1CBB1C0A94D2F7D4FF14C00FE010E00A
:103C300020E030E0B901A80104C0440F551F661F01
:103C4000771F8A95D2F7CB01BA0160957095809560
:103C5000909503C060E070E0CB01C695C695C37037
:103C6000D0E0C230D10561F0C330D10581F06829C0
:103C700079298A299B29219771F00E94E4234BC15D
:103C8000682979298A299B290E94F62344C10E9428
:103C9000E423C501B4010E94D2233DC1112319F0D0
:103CA0008C2F817001C08695882309F434C18D2F33
:103CB000829586958770880F880F9D2F9F70892E1B
:103CC000912CA12CB12C082E04C0880C991CAA1C84
:103CD000BB1C0A94D2F7D4FF14C00FE010E020E020
:103CE00030E0B901A80104C0440F551F661F771FBB
:103CF0008A95D2F7CB01BA01609570958095909521
:103D000003C060E070E0CB01C695C695C3704C2F30
:103D100050E04230510569F04330510589F068297F
:103D200079298A299B294130510571F00E94A924E3
:103D3000F2C0682979298A299B290E94BB24EBC0FB
:103D40000E94A924C501B4010E949724E4C08D2FCC
:103D500090E0FC01E05EF109E531F10508F04FC0AB
:103D6000EF56FF4F0C94E436DF708C2F8F711123C8
:103D700031F00E9430248D2F0E94ED1CC0C00E94A3
:103D800051248D2F0E94F41CBAC0112339F0011167
:103D9000B6C08C2F8F710E947624B1C0023008F01B
:103DA000AEC0F7CF112339F08C2F8F710E943024D1
:103DB000A6C01123C9F38C2F8F710E9451249FC07C
:103DC000112329F08C2F8F710E941B2498C00E9410
:103DD000162495C0112349F0CF718C2F0E943024F6
:103DE00063E08C2F0E94A2258AC081E00E94AB254F
:103DF000023008F484C082E00E94AB2580C0112309
:103E000031F0002389F28D2F0E944C1B78C00023D3
:103E100091F2D93349F45FEF67EE73E0515060409F
:103E20007040E1F700C000008D2F0E94851C67C024
:103E30004C2F4F706D2FC7010E9445060E944323EF
:103E40006EC0D23FB1F028F4D03F49F0D13FF9F035
:103E500028C0D43FB9F058F0D53F71F022C01123EB
:103E600009F447C09091250481E0892708C081E0CA
:103E70001827109325043DC011113BC081E08093A9
:103E8000250437C0111135C01092250432C011230A
:103E900029F080912404882329F329C0002311F3F9
:103EA00028C0809124040023C1F0882341F0909120
:103EB000250481E0892780932504109224048D2F06
:103EC000112319F00E944C1B14C00E94851C86E02F
:103ED000F70111928A95E9F70CC0882351F011116E
:103EE00008C09091250481E08927809325041092D1
:103EF00024044C2F4F706D2FC7010E94FD09F8E07C
:103F0000AF16B10441F05CF04AE0A41AB10852E0E7
:103F1000A516B10420F40E94A5190E942D07DD20EA
:103F2000E1F00E949E2580FD18C0F70112820E94D8
:103F300098250E943024C7010E94B91F0E9498252D
:103F4000DF91CF911F910F91FF90EF90DF90BF9085
:103F5000AF909F908F900C945124DF91CF911F913F
:103F60000F91FF90EF90DF90BF90AF909F908F9058
:103F700008950F931F93CF93DF93EC01888199816C
:103F80002B813C81232BB9F09F3F11F48F3F99F097
:103F9000CE010E943F07882371F0688179818A8170
:103FA0000E9475258C010E94CD240E94CF23B80168
:103FB000CE010E94FB1CDF91CF911F910F910895BC
:103FC0000E941C260E942C268091080190910901D4
:103FD0000E9473270E94C9250E94C62A0E94202A97
:103FE00080E090E00E94D91980E090E00C94EF19F5
:103FF0000E940C260C94E01F0E946A25E92FE2958E
:10400000EF70F0E03297EE30F105B0F4EA55FF4F73
:104010000C94E436803F91F018F4803E68F40EC0B2
:10402000843F51F40BC0803E48F0813F29F406C024
:1040300093FB882780F9089580E0089581E0089532
:10404000CF93DF9300D000D01F92CDB7DEB70F9093
:104050000F900F900F900F90DF91CF910895CF9315
:10406000DF9300D000D000D0CDB7DEB726960FB6D4
:10407000F894DEBF0FBECDBFDF91CF9108951F939F
:10408000CF93DF93C091260416E080912704C817D0
:1040900099F0D0E01C9FF0011D9FF00D1124E85D08
:1040A000FB4F4081518162817381848195810E949F
:1040B0002F202196C770E9CFDF91CF911F910895EE
:1040C000409158045091590460915A0470915B04D6
:1040D00080915C0490915D040C942F2080915D048C
:1040E00082958F7009F054C080915A04882309F496
:1040F0004FC080912604A0912704609158047091CC
:10410000590440915B0450915C04B6E08A1709F4AD
:104110003FC090E041155105C1F17F3F11F46F3F61
:10412000A1F1B89FF001B99FF00D1124E85DFB4F9C
:10413000218172132AC02081621327C0228121119C
:1041400024C0238134812417350710F4215031090C
:10415000241B350B283C3105C0F420915D042F70E1
:10416000206120935D0426E0289FF001299FF00D37
:104170001124E35DFB4F80818F708061808388E52F
:1041800094E00E94B91F0C943F2001968770BECF27
:104190000895CF92DF92EF92FF920F931F93CF93E8
:1041A000DF93CDB7DEB762970FB6F894DEBF0FBED0
:1041B000CDBF8C0185E0F801DE011D9601900D92C6
:1041C0008A95E1F7D8014C9111965C91119712965E
:1041D0006C9112971396CD90DC90149730915804FF
:1041E0007091590480915B0490915C04009709F4EC
:1041F0006BC17F3F19F43F3F09F466C1E0905A0458
:10420000EE2009F4C0C020915D04C816D90628F03C
:10421000F601E81BF90BCF0104C0809590958C0D39
:104220009D1DFF24F394883C910578F0F12C207FAC
:1042300009F0C6C07C2DD98AC88A89890E942020AD
:1042400088E594E00E94B91FB1C0822F807F09F0F9
:1042500046C0751314C0341312C0611110C02F7002
:10426000206120935D040E94602088E594E00E9414
:10427000B91F80915D04D80115968C932EC0CD286E
:1042800019F15F3F11F44F3FF9F0F62E61111CC098
:10429000809126042091270436E0821709F45AC041
:1042A00090E0389FF001399FF00D1124E85DFB4F3D
:1042B0007181571306C07081471303C07281711159
:1042C00003C001968770E9CFF62E662309F427C153
:1042D00080915D04816080935D04F12C20C1751391
:1042E00008C0341306C0611104C080915D04D80178
:1042F000C3C04D875E878D859E856A8B0E94FC1F9B
:104300006A898823E1F16623D1F120915D04822F2F
:1043100082958F7090E0029774F08091580490918C
:10432000590498878F831986DB86CA862C87CE012D
:1043300007960E94B91F86E0F801A8E5B4E0019055
:104340000D928A95E1F70E946E200E946020FF2462
:10435000F394E5C04D875E878D859E850E946A2512
:10436000292F22952F7030E0223031050CF0CBC080
:104370009F7009F0C5C0805E883008F4D0C0C801C5
:104380000E94B91FE4CFC816D90608F453C0F6013D
:10439000E81BF90BCF01883C910508F450C0F12CC3
:1043A0007C2DD98AC88A89890E942020E8E5F4E01A
:1043B00086E0DF011D928A95E9F70E946020AFC078
:1043C000751314C0341312C0611110C080915D04C4
:1043D000F8018583C8010E94B91F86E0E8E5F4E092
:1043E000DF011D928A95E9F7FE2C99C04D875E8703
:1043F0008D859E856A8B0E94FC1F6A89882309F43B
:10440000BECF662309F4BBCF20915D04822F829535
:104410008F7090E002970CF48ECF809158049091A9
:1044200059049A8389831B82DD82CC822E83CE013C
:1044300001967FCF809590958C0D9D1DACCFF62E6B
:10444000662309F49CCF75132EC034132CC0209121
:104450005D0420FD1FC0822F82958F70D9F0D80196
:1044600015962C9315978F3049F08F5F982F929562
:10447000907F822F8F70892B15968C93C8010E9494
:10448000B91F86E0F801A8E5B4E001900D928A9585
:10449000E1F793CF86E0F801A8E5B4E001900D9232
:1044A0008A95E1F73CC04D875E878D859E850E9489
:1044B000FC1F811140CF80915D04816080935D0479
:1044C000C8010E94B91F2BC0662309F458CF4D873D
:1044D0005E878D859E850E94FC1FF82E882309F437
:1044E0004ECF86E0F801A8E5B4E001900D928A95E0
:1044F000E1F788E594E00E943A1B0E946E205DCFB0
:10450000811139CF0CC0243031050CF038CF9F70A9
:1045100009F431CFF8019581907F09F02CCF8F2DD0
:1045200062960FB6F894DEBF0FBECDBFDF91CF917C
:104530001F910F91FF90EF90DF90CF9008951F9300
:10454000CF93DF93CDB7DEB72C970FB6F894DEBFCD
:104550000FBECDBF4F83588769877A878B879C872B
:10456000CE0107960E94C920882369F08F81988523
:104570002A853B85232BF1F19F3F09F063C08F3FD4
:1045800009F060C037C086E0FE013796DE01119663
:1045900001900D928A95E1F76F817885EA85FB8518
:1045A000309741F17F3F11F46F3F21F120912704B3
:1045B00030E0C9010196877099274091260450E0A8
:1045C0008417950709F447C069837A83FD83EC83D8
:1045D00096E0929FD001939FB00D1124A85DBB4F30
:1045E000FE01319601900D929A95E1F78093270490
:1045F0000E943F2016E0809126049091270489179D
:10460000C1F1189FC0011124885D9B4F0E94C920F1
:10461000882379F1E09126041E9FF0011124E85DC2
:10462000FB4F4081518162817381848195810E9419
:104630002F208091260490E001968770992780931F
:104640002604D9CF4F81588569857A858B859C85CD
:104650000E942F20CFCF0E94F81F109227041092A3
:104660002604E8E5F4E086E0DF011D928A95E9F78B
:10467000C1CF2C960FB6F894DEBF0FBECDBFDF9131
:10468000CF911F910895EF92FF920F931F93CF93B5
:10469000DF938C01892B09F46CC0F12CEE24E39498
:1046A000E8012196F8018491843740F4843008F0C1
:1046B00051C0813081F0823019F15BC0853709F437
:1046C00044C0A8F19CE7980F903708F052C08F774C
:1046D0000E94851C41C00E5F1F4FFE01C49180E205
:1046E0008C0F883048F4C7708E2D01C0880FCA9592
:1046F000EAF70E941F2614C08C2F0E944C1B2DC06D
:104700000E5F1F4FFE01C49180E28C0F883058F479
:10471000C7708E2D01C0880FCA95EAF70E94252622
:104720000E94C9251AC08C2F0E94851C16C00E5FDE
:104730001F4FFE01C491CC2381F08FE99FE00197C8
:10474000F1F700C00000C150F6CF0E5F1F4FFE0111
:10475000F49003C00E944C1B8E018F2D882309F416
:104760009FCFEFE9FFE03197F1F700C000008150E3
:10477000F5CFDF91CF911F910F91FF90EF900895AA
:1047800008950C94C0230E94C123609399047093F0
:104790009A0480939B0490939C040C94E01F0895CA
:1047A0000C94C3230F931F930091990410919A04C2
:1047B00020919B0430919C04602B712B822B932BB6
:1047C0001F910F910C94C3230F931F930091990491
:1047D00010919A0420919B0430919C0460237123D2
:1047E000822393231F910F910C94C3230F931F9344
:1047F0000091990410919A0420919B0430919C049B
:1048000060277127822793271F910F910C94C32350
:104810000C946C060E94082460939504709396048F
:1048200080939704909398040C94E01F60E070E0EC
:10483000CB010C940A240F931F9341E050E060E0F9
:1048400070E08A019B0104C0000F111F221F331F5B
:104850008A95D2F7C901B8011F910F910C940A24CF
:104860000F931F9341E050E060E070E004C0440FFC
:10487000551F661F771F8A95D2F7809195049091F6
:104880009604A0919704B09198048A019B01082B8B
:10489000192B2A2B3B2BC901B8011F910F910C94A6
:1048A0000A240F931F9341E050E060E070E004C0E1
:1048B000440F551F661F771F8A95D2F74095509574
:1048C000609570958091950490919604A0919704BD
:1048D000B09198048A019B01082319232A233B23C2
:1048E000C901B8011F910F910C940A240F931F93D3
:1048F00041E050E060E070E004C0440F551F661FC7
:10490000771F8A95D2F78091950490919604A09193
:104910009704B09198048A019B01082719272A2738
:104920003B27C901B8011F910F910C940A240F93E2
:104930001F93009195041091960420919704309153
:104940009804602B712B822B932B1F910F910C9449
:104950000A240F931F9300919504109196042091BF
:1049600097043091980460237123822393231F912D
:104970000F910C940A240F931F93009195041091AA
:10498000960420919704309198046027712782271C
:1049900093271F910F910C940A240895292F220F19
:1049A000920F990F890FA82FA695A695A6958770A7
:1049B00051E001C0550F8A95EAF785E0A89FD00124
:1049C000112420E030E070E0F901EA0FFB1FE25A09
:1049D000FB4F4081CB01022E02C0969587950A9429
:1049E000E2F7817099278195842785238427808326
:1049F0002F5F3F4F2530310539F70895292F220FBA
:104A0000920F990F890F682F669566956695982F76
:104A1000977085E0689FB001112440E050E080E08D
:104A2000FA01E60FF71FE25AFB4F208130E0092E12
:104A300002C0369527950A94E2F721703327042E99
:104A400001C0220F0A94EAF7822B4F5F5F4F453077
:104A5000510531F70895CF92DF92EF92FF920F93B5
:104A60001F93CF93DF938C01C0909904D0909A0448
:104A7000E0909B04F0909C048091950490919604A2
:104A8000A0919704B0919804C82AD92AEA2AFB2A4F
:104A9000CFE1D0E0D701C6010C2E04C0B695A79592
:104AA000979587950A94D2F780FF06C0B8018C2F9E
:104AB0000E94180A019721F4219760F780E001C055
:104AC0008C2FDF91CF911F910F91FF90EF90DF908E
:104AD000CF900895CF93DF93EC010E942B25BE0168
:104AE0000E94180ADF91CF9108951F93CF93DF930F
:104AF000EB0190912304992321F0CB010E946A25B8
:104B000013C0882349F0CB010E942B25182F682F52
:104B1000CE010E94CE2404C0CB010E94FE24182F97
:104B2000BE01812F0E94180ADF91CF911F91089535
:104B300080919D04859585958595089580919D0426
:104B40008770089598E0899F90011124262B209367
:104B50009D040C94302420919D04809582238093A1
:104B60009D04982F977069F430E0482F082E000CB0
:104B7000550B2417350729F08595859585950C9457
:104B80005124089590919D04977081E009F480E08C
:104B90000895E0910801F09109018091C10480839A
:104BA000E0910801F091090190818091C004892B66
:104BB0008083E0910801F091090190818091BF0408
:104BC000892B808380919E04882381F0E0910801E5
:104BD000F09109019081892B808380910801909147
:104BE00009010E94F826811110929E04809108010B
:104BF000909109010C94B1198091C104089590918C
:104C0000C104892B8093C104089580959091C104BB
:104C100089238093C10408951092C104089590914E
:104C2000C004892B8093C004089580959091C0049E
:104C300089238093C00408951092C0040895909130
:104C4000BF04892B8093BF04089580959091BF0481
:104C500089238093BF0408951092BF040895809320
:104C60009E04089510929E04089580919E040895D4
:104C7000CF92DF92EF92FF926C01EE24FF24C114D9
:104C8000D104E104F10421F0C701B60120E101C023
:104C900020E0C72ED82EE92EFF24C114D104E10450
:104CA000F10419F0285FC701B6016B017C0154E0E3
:104CB000F694E794D794C7945A95D1F7C114D104C8
:104CC000E104F10419F02C5FC701B6016B017C010E
:104CD00042E0F694E794D794C7944A95D1F7C1146B
:104CE000D104E104F10419F02E5FC701B601DC0123
:104CF000CB01B695A79597958795892B8A2B8B2BFA
:104D000009F02F5F822FFF90EF90DF90CF900895F2
:104D100080E090E00E94543721E08D3E9E4F09F0E4
:104D200020E0822F089582E090E00C94463783E0E3
:104D300090E00C94463784E090E00C944637682F5E
:104D400084E090E00C945A37AB01BC018FE090E016
:104D50000C946C37AB01BC0183E190E00C946C3790
:104D600060E070E0CB010C94AA2660E070E0CB011B
:104D70000E94A4260C94B0266DEE7EEF80E090E0B9
:104D80000E94783760E082E090E00E945A3760E04D
:104D900083E090E00E945A371092990410929A048E
:104DA00010929B0410929C0460E084E090E00E94CA
:104DB0005A3760E085E090E00E945A3760E086E074
:104DC00090E00E945A376FEF87E090E00E945A37D8
:104DD00040E050E0BA0188E090E00E946C3760E06B
:104DE0008DE090E00E945A370C94B5260C94BC26B6
:104DF000FC01329680911901882331F0809164067C
:104E000087FF02C09EE101C096E080E0915028F04B
:104E100021912223D9F38F5FF9CF08959C01FC01E2
:104E200032969FEF80E04191461789F09F3F19F439
:104E3000411101C0982F8F5F8630A9F79F3F39F04D
:104E4000F901E90FF11D97FDFA9562830895089520
:104E5000FC01329608962081261301C010823196FB
:104E6000E817F907C1F70895262F26952695269568
:104E70002E3168F4FC01E20FF11D677021E030E093
:104E800001C0220F6A95EAF78281282B22830895B8
:104E9000262F2695269526952E3170F4FC01E20FDB
:104EA000F11D677021E030E001C0220F6A95EAF73A
:104EB000209582812823228308952091190122239D
:104EC00029F02091640627FD0C9434270C940E27BA
:104ED00020911901222329F02091640627FD0C94CA
:104EE00048270C94282720911901FC01329622238F
:104EF00031F08091640687FF02C08EE101C086E038
:104F0000DF011D928A95E9F7089508950C9485278D
:104F10000E94862780916A06843049F11092C3046A
:104F200020E488E190E00FB6F894A89580936000A3
:104F30000FBE2093600080E00E942D070E9486270C
:104F400083B7817F846083BF83B7816083BF789498
:104F5000889583B78E7F83BF0FB6F894A89580910C
:104F60006000886180936000109260000FBE089519
:104F70000895CF930E9464040E940D050E94B827F3
:104F8000C0E08C2F0E945505811104C0CF5FCE3048
:104F9000C1F701C081E0CF91089508950C94CD2709
:104FA0000E94F81F0E94A5190E942D070C94CE277D
:104FB0001F920F920FB60F9211248F939F93AF936E
:104FC000BF938091C304811113C0809160069091BA
:104FD0006106A0916206B09163064196A11DB11DC4
:104FE0008093600690936106A0936206B093630677
:104FF000BF91AF919F918F910F900FBE0F901F9017
:10500000189582E084BD93E095BD9AEF97BD80939B
:105010006E0008952FB7F894809160069091610614
:10502000A0916206B09163062FBF0895CF92DF92E0
:10503000EF92FF920F931F932FB7F8944091600661
:105040005091610660916206709163062FBF6A01FC
:105050007B01EE24FF248C0120E030E0C016D10655
:10506000E206F30610F4415051099A01281B390B4E
:10507000C9011F910F91FF90EF90DF90CF9008959D
:1050800078941F920F920FB60F9211248F939F93D3
:10509000AF93BF938091600690916106A0916206E4
:1050A000B09163060196A11DB11D80936006909397
:1050B0006106A0936206B0936306BF91AF919F9182
:1050C0008F910F900FBE0F901F901895F89481E06C
:1050D0008093E00080E28093D800E9ECF0E0108259
:1050E0008FE19EE40197F1F700C000001DBA109215
:1050F00068001CBC10BE1FBA10927A0010926E009D
:1051000010926F0010927100109272001082ECEBFE
:10511000F0E0108214B817B81AB81DB810BA10828F
:1051200015B818B81BB81EB811BA0C94003F0895F2
:105130000E948826811102C00E94F6260E949326B2
:105140008093C2040E949B2690E090936506809312
:1051500064060E949726682F70E080E090E00C942F
:10516000D0238091C70480FF0BC060910D0185E0C2
:10517000689FB001112475956795759567952BC04B
:1051800081FF09C060910D0185E0689FB001112485
:105190007595679520C082FF07C060910D0185E07D
:1051A000689FB001112417C09091C8049923D1F0D1
:1051B00060910C01961788F720910D0185E0289FDA
:1051C00090011124929FA001939F500D112470E033
:1051D000CA010E94D0366038710540F4611571052E
:1051E00039F002C065E070E0862F08958FE70895DA
:1051F00081E008958091C70480FF08C060910B0191
:1052000070E0759567957595679521C081FF06C01B
:1052100060910B0170E07595679519C082FF04C01D
:1052200060910B0170E010C09091C8049923C1F007
:1052300060910A019617A0F780910B01899FC00128
:10524000112470E00E94D0366038710528F4611591
:10525000710521F0862F08958FE7089581E0089564
:1052600061E070E0F4CF803F21F40E94B128819585
:1052700004C0813F29F40E94B1288093CC04089592
:10528000823F21F40E94B128819504C0833F29F414
:105290000E94B1288093CB040895893F19F40E949D
:1052A000FA2805C08A3F31F40E94FA28819580933C
:1052B000CD0408958B3F21F40E94FA28819504C003
:1052C0008C3F29F40E94FA288093CE040895843FED
:1052D00021F48091CA04816017C0853F21F4809138
:1052E000CA04826011C0863F21F48091CA048460A0
:1052F0000BC0873F21F48091CA04886005C0883FB5
:1053000031F48091CA0480618093CA0408958D3F6E
:1053100021F48091C70481600BC08E3F21F48091FD
:10532000C704826005C08F3F29F48091C704846060
:105330008093C7040895803F39F48091CC0487FF9F
:105340006CC01092CC0469C0813F29F48091CC04D8
:105350001816BCF362C09091CB04823F29F497FFEA
:105360005CC01092CB0459C0833F19F41916CCF3DA
:1053700054C0893F41F48091CD0418160CF04DC003
:105380001092CD044AC08A3F29F48091CD0487FF52
:1053900044C0F6CF8B3F39F48091CE0487FF3DC0E7
:1053A0001092CE043AC08C3F29F48091CE04181696
:1053B000BCF333C0843F21F48091CA048E7F17C0B0
:1053C000853F21F48091CA048D7F11C0863F21F46E
:1053D0008091CA048B7F0BC0873F21F48091CA045F
:1053E000877F05C0883F31F48091CA048F7E809307
:1053F000CA0413C08D3F21F48091C7048E7F0BC077
:105400008E3F21F48091C7048D7F05C08F3F29F422
:105410008091C7048B7F8093C7048091CB04811156
:105420000EC08091CC0481110AC08091CD048111FD
:1054300006C08091CE04811102C01092C804089564
:1054400089EC94E00E94CB190E940A289093C5042D
:105450008093C40408951F93CF93DF938091C40475
:105460009091C5040E941628AC019091C80499231C
:1054700021F020910E0130E006C02091C6048AE0A0
:10548000289F900111244217530708F47BC0809194
:10549000CB04C091CC04D091CD041091CE048111E5
:1054A00007C0C1116BC0D11169C0111167C06AC0BA
:1054B0009F3F19F09F5F9093C804181624F40E9430
:1054C000B1288093CB048091CB0487FF05C00E9454
:1054D000B12881958093CB041C1624F40E94B12836
:1054E0008093CC048091CC0487FF05C00E94B12832
:1054F00081958093CC043091CB043323E1F020914B
:10550000CC042223C1F045EB3403C0011124892FC0
:10551000990F990B009709F481E08093CB0435EB48
:105520002303C0011124892F990F990B009709F4C7
:1055300081E08093CC041D1624F40E94FA28809305
:10554000CD048091CD0487FF05C00E94FA28819583
:105550008093CD04111624F40E94FA288093CE047F
:105560008091CE0487FF05C00E94FA288195809320
:10557000CE04DF91CF911F910C94202A9F3F09F018
:1055800099CFA1CFDF91CF911F910895E9ECF4E07D
:1055900086E0DF011D928A95E9F71092C804109207
:1055A000C7040895833081F128F4813059F08230A6
:1055B000D1F00895853009F449C0B8F1863009F476
:1055C00056C008958091C604262F30E0280F311D63
:1055D0002F3F310524F4680F6093C60408958FEFC0
:1055E0008093C604089580910E01262F30E0280F85
:1055F000311D2F3F310524F4680F60930E0108958B
:105600008FEF80930E01089580910D01262F30E0D9
:10561000280F311D2F3F310524F4680F60930D01D1
:1056200008958FEF80930D01089580910C01262F2E
:1056300030E0280F311D2F3F310524F4680F6093AF
:105640000C0108958FEF80930C01089580910B0158
:10565000262F30E0280F311D2F3F310524F4680F2D
:1056600060930B0108958FEF80930B010895809153
:105670000A01262F30E0280F311D2F3F310524F479
:10568000680F60930A0108958FEF80930A010895CF
:10569000833011F128F4813049F0823091F008957F
:1056A000853081F120F18630C1F108958091C604E2
:1056B000681720F4861B8093C60408951092C604D0
:1056C000089580910E01681720F4861B80930E01C7
:1056D000089510920E01089580910D01681720F42D
:1056E000861B80930D01089510920D0108958091FD
:1056F0000C01681720F4861B80930C01089510920A
:105700000C01089580910B01681720F4861B80938B
:105710000B01089510920B01089580910A016817FA
:1057200020F4861B80930A01089510920A010895BF
:105730000F931F93873208F04DC08E3108F093C04D
:10574000803109F47DC008F5873009F46BC068F436
:10575000863009F0A3C08091C204817F8E7F809340
:10576000C20481E08093D0049AC08B3009F48FC0CA
:105770008E3009F093C08091C20482FB222720F969
:1057800091E0922790FB82F964C0863109F47FC0D2
:1057900088F4813109F082C00E94F81F809164066C
:1057A00087FB222720F991E0922790FB87F98093CD
:1057B00064066DC0893109F46AC08B3109F06EC08E
:1057C0008091C20481FB222720F991E0922790FB6F
:1057D00081F93FC0883309F45AC050F4893209F482
:1057E00058C0853309F455C0873209F452C056C0F9
:1057F000833409F44EC028F48A3308F44FC0895327
:1058000033C0883409F04AC00E94F81F0FEF13ED2F
:1058100020E3015010402040E1F700C000000E944A
:10582000662835C08091C204982F9095917090FBA6
:1058300080F98093C20491112AC0897F877F10C0AC
:105840008091C20483FB222720F991E0922790FBEC
:1058500083F98093C2049923D1F08091C2048160BE
:105860008093C20414C08D5141E050E060E070E0CC
:105870008A019B0104C0000F111F221F331F8A954C
:10588000D2F7C901B8010E94D0230E94F81F81E01D
:1058900006C061E070E080E090E0F5CF80E01F910D
:1058A0000F91089580E0089580E008958E518A3028
:1058B00030F4E82FF0E0E65BFC4F8081089580E053
:1058C0000895CF93C82F8091D004813079F018F0DB
:1058D0008230E9F185C0E0910801F09109018081F1
:1058E000813169F0823209F07DC009C0E091080180
:1058F000F09109018081813111F0823261F48C2FA5
:105900000E94522C811104C08C2F0E94982B1DC024
:1059100081E090E01AC08C2F0E94542C811114C099
:10592000C43179F048F4CB3079F0C03109F05EC071
:1059300082E08093D00408C0C93219F0C83321F046
:1059400055C01092D00452C081E0817051C0C9325C
:1059500079F108F5C43161F1A0F4C73009F044C011
:105960001092C60484E180930E01C0930D018CE374
:1059700080930C0188E080930B0188E280930A01F8
:1059800033C082EE8C0F863078F58C2F0E94562C17
:105990008093CF0429C0CE34E9F020F4CB3421F534
:1059A0006AE013C0C13579F0C235F1F461E00DC091
:1059B0008091CF04882319F01092CF0415C081E0A4
:1059C0008093D00415C061E006C08091CF040E948E
:1059D000D22A0AC06AE08091CF040E94482B04C0FA
:1059E0001092D00480E004C081E002C080E0ADCF1E
:1059F000CF9108958091F10408950F931F93CF9351
:105A0000DF9300D01F92CDB7DEB78C010E945E2FCE
:105A1000823011F0843021F584E089831B830A836E
:105A200082E08093E9008FEF9091E800815095FD2E
:105A300006C095ED9A95F1F700008111F5CF8091A0
:105A4000E80085FF0DC040E050E063E070E0CE016B
:105A500001960E947B2F8091E8008E778093E8006A
:105A60000F900F900F90DF91CF911F910F9108959C
:105A7000CF93DF9300D01F92CDB7DEB720916A0697
:105A8000243031F523E02983805891099B838A8350
:105A900082E08093E9008FEF9091E800815095FDBE
:105AA00006C095ED9A95F1F700008111F5CF809130
:105AB000E80085FF0DC040E050E063E070E0CE01FB
:105AC00001960E947B2F8091E8008E778093E800FA
:105AD0000F900F900F90DF91CF910895CF93DF93A8
