:100000000C9420050C943D050C943D050C943D0585
:100010000C943D050C943D050C943D050C943D0558
:100020000C943D050C943D050C94C2300C94943115
:100030000C9437290C943D050C943D050C943D051A
:100040000C943D050C943D050C943D050C943D0528
:100050000C943D050C949F290C943D050C943D0592
:100060000C943D050C943D050C943D050C943D0508
:100070000C943D050C943D050C943D050C943D05F8
:100080000C943D050C943D050C943D050C943D05E8
:100090000C943D050C943D050C943D050C943D05D8
:1000A0000C943D050C943D050C943D059505980573
:1000B0009B059E05A105A405A70567086C087608A1
:1000C0006A086F0874087208BA09BC09C709BE0932
:1000D000C009C209C409C609C909CB09CD09D80993
:1000E000CF09D109D309D509D709DA095F166216F4
:1000F000651668166B166E167116741677167A16D4
:100100007D16891E891EBB1EBB1EF21E121F7B2080
:10011000D920541FD920012001207220D920D920B4
:10012000D3200E200E200E200E200E200E200E209A
:100130000E200E200E200E200E200E200E200E204F
:100140000E201F202C2033203A20442066216621D7
:10015000782178216F217821782178216621662104
:100160007421782178217421013228321A332832FF
:100170001A33743297321A33ED32FC3205A84CCD63
:10018000B2D44EB93836A9020C50B9918688083CD1
:10019000A6AAAA2ABE000000803F6572676F646F3E
:1001A000785F657A2F6233623837313230363637CE
:1001B000396365623138653563204020302E362E34
:1001C0003232302D362D673438346338352D64693A
:1001D000727479000000F0A100000000000000002F
:1001E000000000000000000000000000000000000F
:1001F00000000000000000000000000000000000FF
:1002000000000000000000000000000000000000EE
:1002100000000000000000000000000000000000DE
:1002200000000000000000000000000000000000CE
:1002300000000000000000000000000000000000BE
:1002400000000000000000000000000000000000AE
:10025000000000000000000000000000000000009E
:10026000000000000000000000000000000000008E
:10027000000000000000000000000000000000007E
:10028000000000000000000000000000000000006E
:10029000000000000000000000000000000000005E
:1002A000000000000000000000000000000000004E
:1002B000000000000000000000000000000000003E
:1002C000000000000000000000000000000000002E
:1002D000000000000000000000000000000000001E
:1002E000000000000000000000000000000000000E
:1002F00000000000000000000000000000000000FE
:1003000000000000000000000000000000000000ED
:1003100000000000000000000000000000000000DD
:1003200000000000000000000000000000000000CD
:1003300000000000000000000000000000000000BD
:1003400000000000000000000000000000000000AD
:10035000000000000000000000000000000000009D
:10036000000000000000000000000000000000008D
:10037000000000000000000000000000000000007D
:100380000000000000000000C5DBECC5DBECC5DBB5
:10039000ECC5DBECC5DBECC5DBECC5DBECC5DBECB5
:1003A000C5DBECC5DBECC5DBECC5DBECC5DBECC5CC
:1003B000DBECC5DBECC5DBECC5DBECC5DBECC5DBA6
:1003C000ECC5DBECC5DBECC5DBECC5DBECC5DBEC85
:1003D000C5DBECC5DBECC5DBECC5DBECC5DBECC59C
:1003E000DBECC5DBECC5DBECC5DBECC5DBECC5DB76
:1003F000ECC5DBECC5DBECC5DBECC5DBECC5DBEC55
:10040000C5DBECC5DBECC5DBECC5DBECC5DBECC56B
:10041000DBECC5DBECC5DBEC2E002B003500E1008E
:10042000354200001E00140004001D6134004D0020
:100430001F001A0016001B00E3002A00200008001D
:100440000700060050002C002100150009001900CB
:100450004F004A00220017000A00050000004C006F
:100460005000E2000000E3000000E3004F000153F1
:100470000000E2080000E20023001C000B00110055
:1004800000002961240018000D00100052004B00EC
:1004900025000C000E003600510028002600120036
:1004A0000F0037002F002B00270013003341387155
:1004B00030004E002D0031003468E500035100008B
:1004C0002900010001000100010000003A001E02A5
:1004D00020022202010001003B001F022102230230
:1004E0000100C95C3C002F0226022F000100CA5CFB
:1004F0003D00300227023000010001003E003102C1
:10050000350035020000C35C01000100000001005D
:100510000000010001000100000001000000C25CB9
:100520003F005200510024020000E75C400024001C
:1005300021001E00010001004100250022001F00D3
:100540003700C55C42002600230020002700C65C5F
:1005500043002502010031002E0001004400450047
:100560000100010001000000010001000100010084
:100570000100000001000100010001000100010074
:1005800001000100F2000100010001000100F00083
:10059000F1000100F400010001000100F30001007E
:1005A000F500010001000100010001000000010050
:1005B0000100010000000100000001000100010035
:1005C0000000010000000100010001000100010025
:1005D000000001000100010001000100A90001006C
:1005E000010001000100AC00AA00B60001000100FA
:1005F0000100AB00A80001000100010001000100A2
:100600000100010001000100AE0001000100000036
:1006100001000100010001000100000001000100D3
:10062000040A01000100010001000100160A010096
:1006300001000100010001000100010001000100B2
:10064000010001000100010001000100010045045A
:100650000100010000000100010001000000010094
:100660000000010001000100000001000000010085
:100670003F021C0801000100000001000100010010
:100680000100010001000100010001000100010062
:10069000010001000100120C0F0C0100010001001B
:1006A0000100010001000100010001000100010042
:1006B0000100010001000000000000000000000037
:1006C0002A2B2800000000000000000000000000AD
:1006D00000000029000000002C1E342021222434B8
:1006E0002627252E362D3738271E1F20212223248A
:1006F00025263333362E37381F0405060708090A26
:100700000B0C0D0E0F101112131415161718191AC1
:100710001B1C1D2F3130232D350405060708090A3F
:100720000B0C0D0E0F101112131415161718191AA1
:100730001B1C1D2F3130354C000000000000000054
:1007400000000000000000000000000000000000A9
:100750000000000000000000000101010101010093
:100760000101010100000000000000000000000085
:10077000000001000100010101010101010101016D
:100780000101010101010101010101010101010159
:100790000101010000000101000000000000000054
:1007A0000000000000000000000000000000000049
:1007B0000000000101010100000000000001010132
:1007C000010101010101020202020202020202030E
:1007D00003030303030303040404040404050505DD
:1007E000050506060606060707070708080808099C
:1007F00009090A0A0A0A0B0B0B0C0C0C0D0D0D0E45
:100800000E0F0F0F101011111112121313141415D3
:100810001516161717181819191A1A1B1C1C1D1D46
:100820001E1F1F202021222223242525262727289A
:10083000292A2B2B2C2D2E2F2F30313233343536C5
:10084000363738393A3B3C3D3E3F404142434446CF
:100850004748494A4B4C4D4F5051525355565758A3
:100860005A5B5C5E5F606263646667696A6C6D6E4A
:10087000707173747678797B7C7E808183848688BE
:100880008A8B8D8F91929496989A9B9D9FA1A3A5F8
:10089000A7A9ABADAFB1B3B5B7B9BBBDBFC1C4C6F6
:1008A000C8CACCCFD1D3D6D8DADCDFE1E4E6E8EBB6
:1008B000EDF0F2F5F7FAFCFF040330000000160338
:1008C0004500720067006F0044006F007800200050
:1008D00045005A00000016034500720067006F00D3
:1008E00044006F007800200045005A000000040317
:1008F000090409023B00020100A0FA0904000001FA
:1009000003010100092111010001224000070581B6
:100910000308000A09040100010300000009211175
:1009200001000122C0000705820320000A12011005
:100930000100000008EDFE0713010001020301059C
:10094000010902A10185020901A100050919012976
:100950000515002501950575018102950175038135
:10096000010501093009311581257F95027508813E
:100970000609381581257F950175088106050C0A41
:1009800038021581257F950175088106C0C00501D3
:100990000980A10185031601002603001A81002A9F
:1009A0008300751095018100C0050C0901A1018526
:1009B00004160100269C021A01002A9C027510955B
:1009C000018100C005010906A1018505050719E09F
:1009D00029E715002501950875018102050819010F
:1009E000290595057501910295017503910105078A
:1009F000190029EF1500250195F075018102C00548
:100A0000010906A101050719E029E715002501954F
:100A100008750181029501750881010508190129F0
:100A20000595057501910295017503910105071959
:100A30000029FF150026FF00950675088100C000FB
:100A400011241FBECFEFDAE0DEBFCDBF13E0A0E080
:100A5000B1E0E4E5FEE602C005900D92AA34B107CC
:100A6000D9F726E0AAE4B3E001C01D92A936B20787
:100A7000E1F70E94E62D0C9428370C94000080B317
:100A80008C7080BB81B3836F81BB089584B1807FFC
:100A900084B985B1807F85B98AB1837F8AB98BB1EA
:100AA000837F8BB93E9846980895CF93E82F87307F
:100AB00090F58091040190910501892B09F049C0BE
:100AC000CE2F64E670E080E40E94091A909305013D
:100AD00080930401892BD1F464E670E082E10E94E6
:100AE000601A9093050180930401892B79F481E0C9
:100AF00090E001C0880FCA95EAF764E670E080953F
:100B00000E94601A909305018093040184E690E0AE
:100B1000CF910C94B51A90E0FC013797E730F105BE
:100B2000C0F4EA5AFF4F0C941B36209A289811C043
:100B3000219A29980EC0229A2A980BC0239A2B98A2
:100B400008C0529A5A9805C0539A5B9802C03E9AC0
:100B50004698CF91089508950C94AB05CF93DF93F9
:100B60000E943D0790E090930501809304010E944C
:100B700046050E943F05AFE9B3E02BE433E0EDEA20
:100B8000F3E04EE04E0F11921D9280E090E0E901FB
:100B9000C80FD91F1882019686309105C1F72A5FC8
:100BA0003F4F4E13F0CFDF91CF910C94DF080E949E
:100BB0003D0790E090930501809304010E94460553
:100BC0000E943F05EDEAF3E08EE08E0F11928E1346
:100BD000FDCF0895CF93DF93E62FF0E0E156FC4F71
:100BE00040814827808386E0689FF0011124E55BFF
:100BF000FC4F20E030E080E061E070E050E0AAE0EF
:100C0000B22F9081992319F09150908307C0EB0186
:100C1000022E01C0CC0F0A94EAF78C2BEA0102C025
:100C2000D595C795BA95E2F7C0FDA0832F5F3F4FDA
:100C300031962630310521F7DF91CF910895CF937A
:100C4000DF93D82F873008F040C080910401909145
:100C50000501892B09F042C064E670E080E40E943F
:100C6000091A9093050180930401892B11F0C0E0CB
:100C700027C064E670E083E10E94601A909305014A
:100C800080930401892B99F764E670E081E40E9467
:100C9000091A9093050180930401892B41F784E69A
:100CA00090E00E94901A97FF05C0909305018093F1
:100CB0000401DDCFC82FC0951092050110920401E8
:100CC00084E690E00E94B51A0AC09FB1CFB1C07F00
:100CD000C695C6959370C92BC09501C0C0E06D2F15
:100CE0008C2F0E94EA05282F2095ED2FF0E0E35588
:100CF000FC4F908192238C23892BDF91CF91089513
:100D0000EF92FF920F931F93CF93DF938091040193
:100D100090910501892B91F080914A038F5F809318
:100D20004A0381110BC00E943D0790E0909305019A
:100D300080930401892B11F40E94CF068DEAE82EDE
:100D400083E0F82E04EB13E0C0E08C2F0E945505E1
:100D5000D7E0DC0F8D2F0E9455058C2F0E941F06B7
:100D6000F70181937F018D2F0E941F06F801819367
:100D70008F010E944605CF5FC73039F70E94EB080C
:100D800081E0DF91CF911F910F91FF90EF90089537
:100D9000E82FF0E0E355FC4F8081089508955698C0
:100DA0005E9825982D9826982E9827982F988FEF43
:100DB00090E0909389008093880090938B008093BB
:100DC0008A0090938D0080938C00259A2D9A2FEFA6
:100DD00080E792E0215080409040E1F700C00000A1
:100DE000269A2E9A2FEF80E792E021508040904083
:100DF000E1F700C00000279A2F9A2FEF80E792E0DA
:100E0000215080409040E1F700C0000025982D98C7
:100E10002FEF80E792E0215080409040E1F700C042
:100E2000000026982E982FEF80E792E02150804016
:100E30009040E1F700C0000027982F9856985E98E0
:100E400025982D9826982E9827982F98089589EA06
:100E50008093800089E08093810024982C983F98AB
:100E60008AB18F7C8AB96E98479A8BB180638BB9AF
:100E7000769A0E94CF060C94B80780E290E0909397
:100E80000501809304018091BB0381110EC00E9473
:100E9000031A81E08093BB032FEF83ED90E3215091
:100EA00080409040E1F700C0000064E670E080E41C
:100EB0000E94091A9093050180930401892B09F07F
:100EC00050C064E670E080E00E94601A90930501D3
:100ED00080930401892B09F044C064E670E080E04F
:100EE0000E94601A9093050180930401892BC9F533
:100EF00064E670E08FE30E94601A9093050180938E
:100F00000401892B71F584E690E00E94B51A64E62D
:100F100070E080E40E94091A909305018093040117
:100F2000892BF9F464E670E08CE00E94601A9093DB
:100F3000050180930401892BA1F464E670E080E050
:100F40000E94601A9093050180930401892B49F453
:100F500064E670E08FE30E94601A9093050180932D
:100F6000040184E690E00E94B51A8091040108957E
:100F700080E190E00E9485366093E7047093E80476
:100F80008093E9049093EA040895AF92BF92CF92C0
:100F9000DF92EF92FF920F931F93CF93DF9320E99D
:100FA000289F7001299FF00C1124C0E0D0E000E0E0
:100FB00010E0670182E0C80ED11C57018FEFA81A1C
:100FC000B80AF601EC0FFD1FE852FE4F8491FE01B6
:100FD000EE0DFF1DE852FE4F6491F501EC0FFD1F71
:100FE000E852FE4F7491882319F08091EA0401C001
:100FF00080E00E94FB0E472F282FC8010E94B00FEF
:101000000F5F1F4F239600331105D9F6DF91CF9163
:101010001F910F91FF90EF90DF90CF90BF90AF9016
:1010200008950E94EA17813081F460918A047091DA
:101030008B0480918C0490918D040E9497278330BB
:1010400021F483E090E00C94C5070895611108C075
:10105000FC018281882321F08AE991E00E94DC086A
:1010600080E090E00895863E2CE5920721F0873ECF
:101070009C4541F010C0FB018281882369F00E94E9
:10108000552807C0FB018281882331F081E00E944E
:10109000DB1780E0089581E00895CF92DF92EF9210
:1010A000FF926B017C010E94972756985E982598C5
:1010B0002D9826982E9827982F9890E0FC0131972C
:1010C000E730F105A8F4E35AFF4F0C941B36259A3C
:1010D0002D9A0EC0259A2D9A269A2E9A09C0259AE5
:1010E0002D9A04C0259A2D9A269A2E9A279A2F9ADD
:1010F000C701B601FF90EF90DF90CF90089581E097
:1011000008950C943308CF93282F30E0F901E85468
:10111000F94FC491F901E85CF84F2491222359F06A
:1011200081EE0E94B91C8C2F0E94B91C8C2F0E944A
:10113000D71D81EE04C08C2F0E94B91C8C2FCF913B
:101140000C94D71D0F931F93CF93DF93EC01062FC1
:10115000FE018491882359F19E012F5F3F4F81301A
:1011600041F4E901F9011491812F0E94B91C812FEA
:101170000DC0823031F4E901F90184910E94B91C5B
:101180000AC0833031F4E901F90184910E94D71D2E
:1011900002C00E9483082196802F8823C9F2EFE9BC
:1011A000FFE03197F1F700C000008150F6CFDF91EA
:1011B000CF911F910F91089560E00C94A2080E94B6
:1011C000E727811102C00E9455280E9481160E94C3
:1011D0004B0E0C9427070E94E3158091BC038111EC
:1011E00002C00E94AB0F8091BC0390E001966BE0BF
:1011F00070E00E9407368093BC030C94AC05282F46
:101200002F7041F0822F90E02A3010F44D9608950F
:101210000697089587E290E0089508950C940D09CB
:101220000C940E0908950E9454210E9412092FEF78
:1012300084E39CE0215080409040E1F700C0000032
:101240000C94C529FF920F931F93CF93DF938C01CA
:10125000FC01C081D18180911804811113C0828169
:10126000882349F0CE010E948726F82E682FCE01F0
:101270000E942A2604C0CE010E945A26F82EBE01E2
:101280008F2D04C0CE010E948726BE010E94BD0B97
:10129000EC01B8010E948108882309F466C2B801F4
:1012A000CE010E94C60E882309F45FC2CC3CFCE547
:1012B000DF0741F4F8018281882309F456C20E94B5
:1012C000C21753C2CD3C8CE5D80708F01EC1C43C00
:1012D0009CE5D90761F4F8018281882309F445C2AD
:1012E0000E9458278272E1F40E94D7163EC2C53C84
:1012F000ECE5DE0708F0C7C0C531FCE5DF0798F074
:10130000C23CFCE5DF0709F48CC008F492C0F80188
:101310008281882309F429C20E945827827221F70A
:101320000E94BD1622C2C2308CE5D80708F452C014
:10133000F8018281882309F459C00E94E7278111AE
:1013400002C00E9455280E94FA2790E090935B0605
:1013500080935A06FE01E350FC45E231F10530F47A
:10136000EC59FF4F80915A060C941B3680915A0617
:10137000816027C0826025C0846023C0806121C055
:1013800080621FC080641DC080681BC0846088604C
:1013900018C08E7F16C08D7F14C08B7F12C08F7EC9
:1013A00010C08F7D0EC08F7B0CC08F770AC08B7FE3
:1013B000877F07C087FB222720F991E0922790FBC7
:1013C00087F980935A0680915A060E94FE270E9450
:1013D0005421CBC1C1159CE5D90781F0C130DC4552
:1013E000A9F081E08093C2038093C303C801DF9119
:1013F000CF911F910F91FF900C947F08F80182818B
:10140000882309F4B2C10E941309AFC1F801828197
:10141000882309F4AAC18091B70481608093B7043E
:10142000A4C1F8018281882309F49FC10E94AF16EC
:101430009CC1C631DC45A9F60E945827282FF80127
:1014400082814091080150910901882379F02A7A1C
:1014500091E009F490E09093BD03911102C069E21C
:1014600001C065E3CA010E94BC280AC08091BD0387
:10147000811102C069E201C065E3CA010E94C72868
:101480000E94252772C1F8018281C83CFCE5DF0774
:1014900031F4882309F469C10E94631766C1C93C0D
:1014A0009CE5D907C8F4C63CECE5DE0731F4882397
:1014B00009F45BC10E941D1758C1C73CDC4530F4DC
:1014C000882309F452C10E94F1164FC1882309F400
:1014D0004CC10E944D1749C1CA3C9CE5D90731F463
:1014E000882309F442C10E9493173FC1CB3CDC45DD
:1014F00030F4882309F439C10E947D1736C188234E
:1015000009F433C10E94AD1730C1C43DFCE5DF07CB
:1015100091F4F8018281882309F427C10E94EA1717
:10152000893128F00E94EA17823208F4F9CE89E165
:101530000E94DB171AC1C53D8CE5D80708F068C0CA
:10154000F8018281C03DFCE5DF0771F4882309F4CE
:101550000CC10E94EA17893028F00E94EA178E30E9
:1015600008F4DECE89E0E4CFC13D9CE5D90740F523
:10157000CE3CECE5DE0771F4882309F4F6C00E9446
:10158000EA17823028F00E94EA17853008F4C8CEA6
:1015900082E0CECFCF3CDC4528F4882309F4E5C0B7
:1015A00081E0C6CF882309F4E0C00E94EA178630A4
:1015B00028F00E94EA17883008F4B2CE86E0B8CF4F
:1015C000C23D9CE5D90771F4882309F4CEC00E947E
:1015D000EA17853128F00E94EA17873108F4A0CE77
:1015E00085E1A6CFC33DDC4570F4882309F4BDC076
:1015F0000E94EA178F3028F00E94EA17843108F41D
:101600008FCE8FE095CF882309F4AFC088E190CFCB
:10161000C83DFCE5DF0759F5F8018281882361F0B8
:101620001092C3030E9469299093C1038093C00361
:1016300080E20E94471E99C08091C303882321F055
:1016400080E20E944E1E91C08091C0039091C10320
:101650000E947529883C910598F780E20E944E1EF1
:1016600088E20E94B91C88E20E94D71D7EC0C93D55
:101670008CE5D80708F058C0F8018281C63DFCE52A
:10168000DF0751F5882351F01092C2030E946929A7
:101690009093BF038093BE0382E0CBCF0E94582774
:1016A00085FF05C081E08093C2038093C3038091CE
:1016B000C20381110FC08091BE039091BF030E94AD
:1016C0007529883C910530F486E20E94B91C86E2B7
:1016D0000E94D71D82E0B5CFC73DDC4528F48823A2
:1016E00009F443C083E224CF81119ACF0E94582786
:1016F00081FF05C081E08093C2038093C303809182
:10170000C30381119DCF8091C0039091C1030E94BA
:101710007529883C910508F093CF87E20E94B91C97
:1017200087E20E94D71D8CCFCC3DECE5DE0741F46B
:10173000F80182818823C9F082E00E94852E15C0BD
:10174000CD3DFCE5DF0739F4F8018281882369F09B
:101750000E9455280AC0CB3DDC4509F042CEF80175
:101760008281882311F080E0E8CF80E0DF91CF9183
:101770001F910F91FF900895089596E0799FF001D1
:10178000112494E5899FE00DF11D1124E60FF11D50
:10179000EE0FFF1FE85EFB4F859194910895880F2F
:1017A000991FFC01EC52FE4F859194910895CF93BF
:1017B000DF930E94BD0B0E94940DEC01811520E582
:1017C0009207F0F5811530E4930708F029C1883EAF
:1017D000910500F5803E910508F0A2C1883A910577
:1017E00070F4853A910508F0A3C08130910509F4A1
:1017F00097C108F448C1049708F092C144C18F3BD7
:10180000910508F4A0C0803C910508F43CC1805CBF
:101810009109F8C08115904258F4C11581E0D807AC
:1018200008F07EC1C03FD10508F42DC1D06578C154
:10183000C11590E3D90708F0E9C0CE019F70E2C05E
:10184000811525E5920708F043C0811534E593071B
:1018500008F0FDC0811542E5940708F5C11581E542
:10186000D80708F0E0C02C2F237081E090E002C080
:10187000880F991F2A95E2F79C689E0174E03695BF
:1018800027957A95E1F72370922BCF70C695C69570
:1018900040E2C49FE0011124C82BD92B41C1869599
:1018A00086959E0123703327C115D34508F0C0C02B
:1018B00040E2849FC0011124C1E0D0E002C0CC0FFF
:1018C000DD1F2A95E2F78C2B9D2BEC01DC6828C1EB
:1018D00081152AE5920798F4811539E5930708F0F8
:1018E000C1C08115964508F4B7C0C11588E5D80771
:1018F00008F4C9C0DC2FCC27C06FD06A11C1C11554
:101900009BE5D90708F4BFC0C1152CE5D20708F440
:10191000B7C0CE0190568115904208F0B4C08D2F0B
:101920008F710E94110EDD27D0628F71D82BF8C005
:10193000853A910509F4AAC0863A910509F0A9C033
:10194000C2E8D0E4EDC0883A910509F4A5C0893A0F
:10195000910509F4A4C08A3A910509F4A3C08B3A11
:10196000910509F4A2C08C3A910509F4A1C08B3B02
:10197000910509F4A0C08C3B910509F49FC08D3AF4
:10198000910509F49EC0803B910509F49DC08E3AF3
:10199000910509F49CC08F3A910509F49BC0813BE5
:1019A000910509F49AC0823B910509F499C0833BE3
:1019B000910509F498C0843B910509F497C0853BD3
:1019C000910509F496C0863B910509F495C0873BC3
:1019D000910509F494C0883B910509F493C0893BB3
:1019E000910509F492C08D3B910509F491C08E3B9D
:1019F000910509F490C08A3B910509F48FC0C0E0BD
:101A0000D4E48EC00E94CF0BEC018AC0CE0199278E
:101A1000D3FF03C0EC01D86C83C0EC01D06C80C054
:101A2000DF70D06A7DC0DC2FCC27C16FD06A78C050
:101A300040E2849FC0011124C1E0D0E002C0CC0F7D
:101A4000DD1F2A95E2F7C82BD92BDA6869C0D82F99
:101A5000CC27C46FD06A64C0CF71DD27DC2FCC27C0
:101A6000D0625EC08F70806E90E0906A24E0D69560
:101A7000C7952A95E1F7CF709C013C2BE90150C036
:101A8000DD27D0664DC0C0E0D0E04AC0C1E8D0E458
:101A900047C0C3E8D0E444C0C2EED4E441C0C9EEBC
:101AA000D4E43EC0CAEED4E43BC0C5EBD4E438C0B5
:101AB000C6EBD4E435C0C3EBD4E432C0C4EBD4E409
:101AC0002FC0C7EBD4E42CC0CCECD4E429C0CDECBF
:101AD000D4E426C0C3E8D5E423C0CAE8D5E420C0D6
:101AE000C2E9D5E41DC0C4E9D5E41AC0C1E2D6E418
:101AF00017C0C3E2D6E414C0C4E2D6E411C0C5E204
:101B0000D6E40EC0C6E2D6E40BC0C7E2D6E408C0F5
:101B1000CFE6D4E405C0C0E7D4E402C0CAE2D6E40C
:101B2000CE01DF91CF9108958238910549F1B0F44B
:101B30008133910509F458C048F48932910509F4BC
:101B40004EC08A32910509F454C008958533910539
:101B500009F440C08933910599F00895833E9105B9
:101B600029F138F4803E910591F0823E9105A1F073
:101B70000895863E9105F9F0873E910531F108956B
:101B800020915A0620FD3AC021FD38C00895809169
:101B90005A0680FD35C032C080915A0682FF32C09D
:101BA00080915A0684FD30C083EE39C080915A0678
:101BB00082FD28C0F5CF80915A0683FF27C080910F
:101BC0005A0684FD21C087EE2AC080915A0683FD03
:101BD0001DC0F5CF80915A0685FD1AC01BC08091AB
:101BE0005A0685FD17C014C080915A0686FD14C0A0
:101BF00015C080915A0686FD11C00EC080EE0FC040
:101C000089E30DC082EE0BC080E009C086EE07C0FC
:101C100089E205C085E303C08AE201C081E390E068
:101C2000089590915A0692FF0DC0282F28712830F0
:101C300019F4877F846006C0282F2471243011F4A2
:101C40008B7F886093FF0DC0282F2871283119F4ED
:101C5000877E846106C0282F2471243111F48B7E85
:101C6000886194FD877E0895CF93DF93813020E8CB
:101C7000920768F0FB012281222349F0EC010E94C7
:101C8000610ECE019F770E94A90E0E94960E81E000
:101C9000DF91CF9108958CE090E00E947D3690E036
:101CA000A0E0B0E08093EC049093ED04A093EE04E8
:101CB000B093EF0408956091EC048CE090E00C94F4
:101CC00091360E9458278093C4030E946B2780910D
:101CD000EC04813071F048F08230D9F08430F9F4AE
:101CE00086EE0E943F1E88E118C082EE0E94B91C59
:101CF00016C080EE0E94B91C81EE0E94B91C88E1DA
:101D00000E943F1E81EE0E94D71D80EE0E94D71DCB
:101D100006C082EE0E94B91C87E50E943F1E8FE339
:101D20009CE90197F1F700C0000008958091EC0450
:101D3000813021F038F0823029F007C08CE20E9417
:101D40003F1E03C082EE0E94D71D8091C4030C94F5
:101D500068270F931F93CF93DF938C01CCE0D0E0E3
:101D6000C8010C2E02C0969587950A94E2F78F70F1
:101D70000E94FF080E943F1E2497CC3F8FEFD80798
:101D800079F7DF91CF911F910F9108950F931F93D2
:101D9000CF93DF93EC018B01FB018281882319F142
:101DA000C23EFCE5DF07C1F050F4C03EECE5DE07C3
:101DB00081F0C13EFCE5DF07B1F481E010C0C33E15
:101DC0008CE5D80759F0C43EECE5DE0761F484E009
:101DD00006C01092EC0405C082E001C083E080934D
:101DE000EC040E945B0EB801CE01DF91CF911F91F0
:101DF0000F910C94340ECF92DF92EF92FF920F93DB
:101E00001F93CF93DF93E82FF82F711103C0682F32
:101E1000782F7EC0062F10E0C72FD0E0E82EF12CDF
:101E2000C8016BE270E00E94F3359B0145ED42036F
:101E3000B001439F700D1124060F171F86E0809F8D
:101E4000B001819F700D11244FEF50E0CA018C1B2F
:101E50009D0B8E9DD0018F9DB00D9E9DB00D1124C8
:101E60008B2F6C9F80016D9F100D7C9F100D112496
:101E7000012F11276A01C01AD10ACE9C8001CF9C84
:101E8000100DDE9C100D11246A01C61AD70ACC9ED3
:101E9000B001CD9E700DDC9E700D1124672F772749
:101EA000461B570B4E9DE0014F9DD00D5E9DD00D02
:101EB00011247D2F2230310599F04CF42115310584
:101EC000C9F021303105A1F47E2FE12F13C023305A
:101ED000310551F02430310559F4ED2F7B2F06C028
:101EE000EB2F8D2F7F2F06C0712FEB2F8F2F02C06E
:101EF0007B2F812FF0E0E854F84F6491E72FF0E05A
:101F0000E854F84F7491E82FF0E0E854F84F8491CA
:101F1000DF91CF911F910F91FF90EF90DF90CF90C5
:101F2000089580E190E00C948536AB01BC0180E11E
:101F300090E00C94A336E7EEF4E08DE080831092FD
:101F4000E8048FEF828383831482608171818281B0
:101F500093810C94950FE0914803F0914903099403
:101F6000E0914403F09145030994E0914603F09118
:101F70004703099440E060E080E00C94B50FE7EE81
:101F8000F4E06081862F881F8827881F6091E8040D
:101F9000660F682B728183810E94FB0E962F672F3C
:101FA000482F892F0C94B50FDF92EF92FF920F9379
:101FB0001F93CF93DF938091E704881F8827881FA2
:101FC0009091E804492F440F242F282B97FB3327A7
:101FD00030F9C9018C549F4F68E671E00E940736C2
:101FE000821B930B8038910514F09A9505C08138B7
:101FF0004FEF94070CF4939597FD0396959587956D
:1020000095958795C82F8091E904281B310937FFE2
:1020100002C02D5F3F4F3595279535952795D22FD7
:10202000D090EA049CE1E92E91E0F92E00E010E066
:10203000F701208122952F706091E704962F991F58
:102040009927991F6091E804660F692B2C9F600DFA
:1020500011247091E9042D9F700D11248D2D0E9483
:10206000FB0E472F282FC8010E94B00F0F5F1F4F94
:10207000F4E0EF0EF11C00331105D1F6DF91CF91A2
:102080001F910F91FF90EF90DF900895AF92BF9254
:10209000CF92DF92EF92FF920F931F93CF93DF9334
:1020A0001F92CDB7DEB7D82E2091E704221F22273A
:1020B000221F8091E804982F990FB22EB92A87FB2E
:1020C000882780F9EB2DF82FCF018C549F4F68E6BD
:1020D00071E00E9407369C012E1B3F0B37FF02C0A8
:1020E0002D5F3F4F3595279535952795A22EC090AA
:1020F000E9040091CB031091CC032091CD033091E2
:10210000CE039091EB04992359F0692F70E08AE097
:1021100090E00E940736CB01770FAA0BBB0B04C0DF
:102120008AE090E0A0E0B0E080239123A223B323D3
:10213000892B8A2B8B2B41F40E946D3660E370E073
:102140000E940736082F01C00FEFE12CF12C10E0A0
:10215000D11003C0E016F106A9F40E946D36837019
:102160006B2D8A9D600D112469830E946D366981F3
:102170007C2D8091EA040E94FB0E472F282FC70177
:102180000E94B00F8FEFE81AF80A80E3E816F10416
:10219000F9F60F90DF91CF911F910F91FF90EF9083
:1021A000DF90CF90BF90AF900895CF92DF92EF92E3
:1021B000FF921F93CF93DF938091CB039091CC0339
:1021C000A091CD03B091CE030090EB0404C0880F22
:1021D000991FAA1FBB1F0A94D2F7182F8AE1C82E95
:1021E00081E0D82EC0E0D0E09FE3E92EF12CF6018B
:1021F00080818F3FE1F0FE01E051FB4F8081F4E0F0
:102200008F9FC00111248034910524F4B701681B0D
:10221000790B02C060E070E0610F7FEF8091EA040B
:102220000E94FB0E472F282FCE010E94B00F21964F
:1022300024E0C20ED11CC033D105C9F6DF91CF9185
:102240001F91FF90EF90DF90CF900895CF92DF9293
:10225000EF92FF920F931F93CF93DF938091CB0365
:102260009091CC03A091CD03B091CE030090EB04EC
:1022700004C0880F991FAA1FBB1F0A94D2F7D82E3B
:10228000C090EA040AE111E0C0E0D0E08FE3E82E5C
:10229000F12CF80180818F3FF9F0FE01E051FB4FF6
:1022A0002081F4E02F9F90011124203431052CF47B
:1022B000C701821B930B9C0102C020E030E0F801B3
:1022C00061816D0D620F7FEF8C2D0E94FB0E472FF9
:1022D000282FCE010E94B00F21960C5F1F4FC033F4
:1022E000D105B9F6DF91CF911F910F91FF90EF903B
:1022F000DF90CF900895CF92DF92EF92FF920F93ED
:102300001F93CF93DF938091CB039091CC03A09147
:10231000CD03B091CE030090EB0404C0880F991F49
:10232000AA1FBB1F0A94D2F7D82EC090EA040AE174
:1023300011E0C0E0D0E08FE3E82EF12CF8018081BD
:102340008F3FF9F0FE01E051FB4F2081F4E02F9F19
:1023500090011124203431052CF4C701821B930B0A
:102360009C0102C020E030E0F80162816D0D620F37
:102370007FEF8C2D0E94FB0E472F282FCE010E944D
:10238000B00F21960C5F1F4FC033D105B9F6DF9116
:10239000CF911F910F91FF90EF90DF90CF90089514
:1023A0002F923F924F925F926F927F928F929F9265
:1023B000AF92BF92CF92DF92EF92FF920F931F9353
:1023C000CF93DF933090E9042090EA046091CB032F
:1023D0007091CC038091CD039091CE030E9468341C
:1023E0002BED3FE049E450E40E94353520E030E039
:1023F00040E05CE30E9435356B017C010E94BB33F9
:1024000020E030E040E05DE30E9435352B013C01E7
:10241000C701B6010E94A23520E030E040EE52E450
:102420000E94C0334B015C01CCE1D1E000E010E040
:10243000688170E080E090E00E946A3420E030E043
:1024400040E052E40E944E33A30192010E943535D0
:102450006B017C01FE013197608170E080E090E0CB
:102460000E946A3420E030E040EE52E40E944E3395
:10247000A50194010E9435359B01AC01C701B6014D
:102480000E944F3320E030E044E353E40E943535AE
:102490006B017C018091E704881F8827881F909139
:1024A000E804292F220F622F682B97FB772770F9FA
:1024B000072E000C880B990B0E946A349B01AC011B
:1024C000C701B6010E944F330E943934732D822D0B
:1024D0000E94FB0E472F282FC8010E94B00F0F5FEC
:1024E0001F4F24960033110509F0A2CFDF91CF9141
:1024F0001F910F91FF90EF90DF90CF90BF90AF9022
:102500009F908F907F906F905F904F903F902F9013
:1025100008952F923F924F925F926F927F928F9287
:102520009F92AF92BF92CF92DF92EF92FF920F9362
:102530001F93CF93DF93CDB7DEB728970FB6F894EC
:10254000DEBF0FBECDBF8091E9048D839091EA0478
:102550009E836091CB037091CC038091CD039091C9
:10256000CE030E9468342BED3FE049E450E40E9422
:10257000353520E030E040E05CE30E9435356B010A
:102580007C010E94BB332B013C01C701B6010E94B4
:10259000A23569837A838B839C83ECE1F1E0F88731
:1025A000EF8300E010E0EF81F88531972080EF8124
:1025B000F885B0803090EB04332079F0632D70E023
:1025C00080E090E00E946A3420E030E040EC5FE37D
:1025D0000E9435356B017C0106C0C12CD12C90ECDA
:1025E000E92E9FE3F92E6B2D70E080E090E00E94D1
:1025F0006A3420E030E040E052E40E944E339B0118
:10260000AC01C701B6010E943535A30192010E94B9
:1026100035354B015C01332079F0632D70E080E0AB
:1026200090E00E946A3420E030E040EC5FE30E94DA
:1026300035356B017C0106C0C12CD12C80ECE82E15
:102640008FE3F82E622D70E080E090E00E946A3403
:1026500020E030E040EE52E40E944E339B01AC019A
:10266000C701B6010E94353529813A814B815C81D1
:102670000E9435359B01AC01C501B4010E944F3366
:102680006B017C018091E704881F8827881F909147
:10269000E804292F220F622F682B97FB772770F908
:1026A000072E000C880B990B0E946A349B01AC0129
:1026B000C701B6010E944F330E9439347D818E815B
:1026C0000E94FB0E472F282FC8010E94B00F0F5FFA
:1026D0001F4F8F819885049698878F83003311054B
:1026E00009F061CF28960FB6F894DEBF0FBECDBFBC
:1026F000DF91CF911F910F91FF90EF90DF90CF90DE
:10270000BF90AF909F908F907F906F905F904F9011
:102710003F902F9008952F923F924F925F926F9229
:102720007F928F929F92AF92BF92CF92DF92EF9261
:10273000FF920F931F93CF93DF9300D000D01F928F
:10274000CDB7DEB72091E9042A838091EA048B8318
:102750006091CB037091CC038091CD039091CE0317
:102760000E9468342BED3FE049E450E40E94353587
:1027700020E030E040E05CE30E9435356B017C01F5
:102780000E94BB332B013C01C701B6010E94A23558
:102790004B015C01ACE1B1E0BD83AC8300E010E033
:1027A000EC81FD813197B081B983EC81FD8130806E
:1027B0002090EB04222069F0622D70E0660F771FF5
:1027C000072E000C880B990B0E946A346B017C0168
:1027D00005C0C12CD12CE12C20E4F22E632D70E039
:1027E00080E090E00E946A3420E030E040E052E473
:1027F0000E944E339B01AC01C701B6010E943535E2
:10280000A30192010E9435356B017C01222021F049
:10281000312C220C331C03C082E0282E312CF9818C
:102820006F2F70E080E090E00E946A3420E030E09A
:1028300040EE52E40E944E330E9432349B0177FFF7
:1028400004C022273327261B370B82E490E0821B2B
:10285000930B289EB001299E700D389E700D112497
:10286000072E000C880B990B0E946A34A501940175
:102870000E9435359B01AC01C701B6010E944F3360
:102880006B017C018091E704881F8827881F909145
:10289000E804292F220F622F682B97FB772770F906
:1028A000072E000C880B990B0E946A349B01AC0127
:1028B000C701B6010E944F330E9439347A818B815F
:1028C0000E94FB0E472F282FC8010E94B00F0F5FF8
:1028D0001F4F8C819D8104969D838C83003311054D
:1028E00009F05ECF0F900F900F900F900F90DF9137
:1028F000CF911F910F91FF90EF90DF90CF90BF90FD
:10290000AF909F908F907F906F905F904F903F908F
:102910002F9008952F923F924F925F926F927F92E5
:102920008F929F92AF92BF92CF92DF92EF92FF92DF
:102930000F931F93CF93DF9300D01F92CDB7DEB7D5
:102940002090E9048091EA0489836091CB0370911F
:10295000CC038091CD039091CE030E94683420E097
:1029600030E040E85BE30E94353520E030E040E6AF
:1029700053E40E9435352B013C01ECE1F1E0FB838F
:10298000EA8300E010E0EA81FB8131973080EA8140
:10299000FB81E080F090EB04FF2079F06F2D70E078
:1029A00080E090E00E946A3420E030E040EC5FE399
:1029B0000E9435354B015C0106C0812C912C90ECB6
:1029C000A92E9FE3B92E6E2D70E080E090E00E946A
:1029D0006A3420E030E040E052E40E944E330E942E
:1029E00032349B0177FF04C022273327261B370B85
:1029F000B901330F880B990B0E946A349B01AC011B
:102A0000C501B4010E9435352EE23DEB4BEB53EB93
:102A10000E9435354B015C01FF2079F06F2D70E08D
:102A200080E090E00E946A3420E030E040EC5FE318
:102A30000E9435356B017C0106C0C12CD12C80EC85
:102A4000E82E8FE3F82E632D70E080E090E00E9486
:102A50006A34A30192010E944E339B01AC01C7016D
:102A6000B6010E9435359B01AC01C501B4010E943D
:102A70004E336B017C018091E704881F8827881FF3
:102A80009091E804292F220F622F682B97FB77275C
:102A900070F9072E000C880B990B0E946A349B0179
:102AA000AC01C701B6010E944F330E943934722D28
:102AB00089810E94FB0E472F282FC8010E94B00F6A
:102AC0000F5F1F4F8A819B8104969B838A8300330B
:102AD000110509F058CF0F900F900F90DF91CF9113
:102AE0001F910F91FF90EF90DF90CF90BF90AF902C
:102AF0009F908F907F906F905F904F903F902F901E
:102B00000895CF92DF92FF920F931F93CF93DF939D
:102B10001F92CDB7DEB7F82E0091CB031091CC03F6
:102B20002091CD033091CE039091EB04992359F07D
:102B3000692F70E08AE090E00E940736AB01770FC2
:102B4000660B770B04C04AE050E060E070E0402381
:102B5000512362237323452B462B472B39F40E94C4
:102B60006D3660E370E00E94073601C08FEF00E031
:102B700010E0C82ED12CF11003C00C151D0581F4F6
:102B80000E946D3689830E946D36782F698180910D
:102B9000EA040E94FB0E472F282FC8010E94B00FA5
:102BA0000F5F1F4F0033110531F70F90DF91CF9169
:102BB0001F910F91FF90DF90CF90089508950E948C
:102BC000DE150C9411084091E70440FD0AC00E94F4
:102BD000BA0F0E94DF158091E7048170809307018E
:102BE00008958091C503843120F48F5F8093C503DD
:102BF00008958091CB039091CC03A091CD03B09127
:102C0000CE030196A11DB11D8093CB039093CC03FD
:102C1000A093CD03B093CE038091C7039091C803D6
:102C2000A091C903B091CA038F3F2FEF9207A2076B
:102C3000B20759F00196A11DB11D8093C70390936F
:102C4000C803A093C903B093CA038091C603E0EF01
:102C5000F4E090819F3F61F09E3F41F4282F30E0E7
:102C60002230310514F0815001C080E09F5F9083D5
:102C7000319695E0E032F90761F78093C603E42FBF
:102C8000E695EF7380910601E81307C081E090910B
:102C90000701913019F480E001C081E08170E09378
:102CA000060191E0909307014E2F50E0FA01319711
:102CB000EB30F10520F5EA58FF4F0C941B360E94CB
:102CC000BF0F1DC00E94D0111AC00E94D40F17C0A0
:102CD0000E94461014C00E94D51011C00E942611F7
:102CE0000EC00E947B110BC00E94891208C00E9476
:102CF0008B1305C00E948A1402C00E9481150C9497
:102D0000DF15E0914203F09143030995E0EFF4E011
:102D10008FEF819395E0E032F907D9F70E94E7271A
:102D2000811104C00E9455280E949B0F0E94910FA0
:102D30006093E7047093E8048093E9049093EA04B5
:102D40006E7761F40E949B0F0E94910F6093E704DD
:102D50007093E8048093E9049093EA040895E7EE01
:102D6000F4E08081982F909590FB80F980836081BA
:102D70007181828193810C94950F9091E704892F42
:102D800086958F5F8F7391788C3018F4880F892B1C
:102D900002C0892F82608093E7046091E7047091FC
:102DA000E8048091E9049091EA040C94950F9091C5
:102DB000E704892F8695815C8F739178882319F0B9
:102DC000880F892B02C0892F86618093E704609168
:102DD000E7047091E8048091E9049091EA040C946E
:102DE000950F8091E704982F991F9927991F80913B
:102DF000E804880F892B90E008968F3F910519F021
:102E000014F08FEF90E02091E70480FB27F92093E6
:102E1000E704282F26958091E8048078822B90FB88
:102E200087F98093E8046091E7047091E804809149
:102E3000E9049091EA040C94950F8091E704982F8F
:102E4000991F9927991F8091E804880F892B90E09A
:102E5000089797FF02C080E090E08F3F910519F03E
:102E600014F08FEF90E02091E70480FB27F9209386
:102E7000E704282F26958091E8048078822B90FB28
:102E800087F98093E8046091E7047091E8048091E9
:102E9000E9049091EA040C94950F8091E90490E084
:102EA00008968F3F910519F014F08FEF90E0809312
:102EB000E9046091E7047091E8048091E90490913D
:102EC000EA040C94950F8091E90490E0089797FF2D
:102ED00002C080E090E08F3F910519F014F08FEF71
:102EE00090E08093E9046091E7047091E804809198
:102EF000E9049091EA040C94950F8091EA0490E023
:102F000008968F3F910519F014F08FEF90E08093B1
:102F1000EA046091E7047091E8048091E9049091DB
:102F2000EA040C94950F8091EA0490E0089797FFCB
:102F300002C080E090E08F3F910519F014F08FEF10
:102F400090E08093EA046091E7047091E804809136
:102F5000E9049091EA040C94950F8091EB0490E0C1
:102F600001968430910514F083E090E08093EB04A7
:102F70006091E7047091E8048091E9049091EA047B
:102F80000C94950F8091EB0490E0019797FF02C09D
:102F900080E090E08430910514F083E090E080932D
:102FA000EB046091E7047091E8048091E90490914A
:102FB000EA040C94950FE7EEF4E08F73982F990FC5
:102FC00080818178892B8083608171818281938166
:102FD0000C94950F8091E70486958F73089567E7A9
:102FE00084E70C94C419CF930E94031A84E70E94CB
:102FF000491887E70E944918C0E021E041E061E0FC
:103000008C2F0E94DB18CF5FC033B9F767E784E7E6
:10301000CF910C94D719E0E4F6E06083418324E675
:1030200030E042E050E0BF01880F0C94D91AEF92D3
:10303000FF921F93CF93DF937B01182F110FC0E0F6
:10304000D0E08C2F8C5D8093400620E030E0F901C9
:10305000EC0FFD1FEE0DFF1D8081F901E05CF94FC3
:1030600081832F5F3F4F2031310589F724E630E01F
:1030700041E150E060E476E0812F0E94D91A609629
:10308000C039D105F1F6DF91CF911F91FF90EF90FC
:103090000895CF93DF93C82F4BE06DEF0E940B187C
:1030A00040E06AE08C2F0E940B188FE39CE90197A7
:1030B000F1F700C0000040E060E08C2F0E940B1888
:1030C00040E061E08C2F0E940B1840E066E08C2FFE
:1030D0000E940B1840E06DEF8C2F0E940B18D0E07F
:1030E00040E06D2F8C2F0E940B18DF5FD231C1F7AB
:1030F00040E06D2F8C2F0E940B18DF5FD432C1F798
:1031000040E06D2F8C2F0E940B18DF5FD43BC1F77E
:103110004BE06DEF8C2F0E940B1841E06AE08C2F82
:103120000E940B1840E06DEF8C2FDF91CF910C9433
:103130000B188033910520F5880F991F880F991F70
:10314000FC01E652FE4F5281338180818370718190
:10315000E0E98E9FC0011124805E9A4FFC01E70FC9
:10316000F11DB4976083FC01E50FF11DB497408316
:10317000830F911DFC01B497208381E08093F403B9
:103180000895FF920F931F93CF93DF93182F062F6D
:10319000F42EC0E0D0E02F2D402F612FCE010E94F1
:1031A00099182196C033D105B1F7DF91CF911F91C6
:1031B0000F91FF9008954F925F927F928F929F920E
:1031C000AF92BF92CF92DF92EF92FF920F931F9335
:1031D000CF93DF93362F54E0859FC0011124FC016B
:1031E000E652FE4FA081A3707A2E618170E0CB0180
:1031F00084978C0197FF02C0095F1F4FA3E01595CC
:103200000795AA95E1F7628170E07B0154E2E51A27
:10321000F108E701F7FC279673E0D595C7957A95F5
:10322000E1F7638170E04B01E4E28E1A9108F4014A
:1032300097FC37962F0153E0559447945A95E1F740
:1032400068E0A62EB12CB5010E9407366C01C701BB
:10325000B5010E9407367C01C401B5010E94073602
:10326000A72DB0E01127DD243323A1F032E13A9FEE
:10327000B0013B9F700D1124060F171F00531C4F08
:1032800061E070E001C0660FCA94EAF7F80130818E
:10329000632B14C032E13A9FB0013B9F700D1124A3
:1032A000060F171F00531C4F61E070E001C0660F4E
:1032B000CA94EAF76095F801308163236083DD27C3
:1032C000FF2432E1442391F03A9FA0013B9F500D2F
:1032D0001124C40FD51FC053DC4F41E050E001C0A2
:1032E000440FEA94EAF73881432B12C03A9FA001B9
:1032F0003B9F500D1124C40FD51FC053DC4F41E03C
:1033000050E001C0440FEA94EAF740953881432326
:103310004883A2015527992792E19A9FF0019B9F2C
:10332000F00D1124E40FF51FE053FC4F222361F050
:1033300021E030E0A90102C0440F551F8A95E2F751
:10334000CA019081892B0CC021E030E0A90102C0A4
:10335000440F551F8A95E2F7CA0180959081892311
:10336000808381E08093CF03DF91CF911F910F91F4
:10337000FF90EF90DF90CF90BF90AF909F908F9095
:103380007F905F904F900895CF939091F40399238D
:1033900051F0C62F60E275E00E94171860EB75E0EF
:1033A0008C2F0E9417181092F403CF910895EF927A
:1033B000FF920F931F93CF93DF939091CF039923A5
:1033C000D9F0162F082F80EDE82E83E0F82EC0E00C
:1033D000D0E0F70141917F016C2F802F0E940B18E4
:1033E000FE01E053FC4F42896C2F812F0E940B1885
:1033F0002196C231D10569F7DF91CF911F910F91CD
:10340000FF90EF9008951092B9008CE08093B8007F
:103410000895EF92FF920F931F93CF93DF93182F8E
:10342000EB011092BC0084EA8093BC000E946929E1
:103430007C019091BC0097FD0EC0CF3F8FEFD80765
:10344000C1F30E9469298E199F098C179D0788F383
:103450008EEF9FEF2EC09091B900987F983041F089
:103460009091B900987F903119F08FEF9FEF21C0B4
:103470001093BB0084E88093BC000E9469298C01F2
:103480009091BC0097FD0CC0CF3F8FEFD807C1F3E0
:103490000E946929801B910B8C179D0788F3D8CF58
:1034A0008091B900887F883111F08034F1F680E096
:1034B00090E0DF91CF911F910F91FF90EF900895D1
:1034C0000F931F93CF93DF93EB018093BB0084E8AE
:1034D0008093BC000E9469298C019091BC0097FDEB
:1034E0000EC0CF3F8FEFD807C1F30E946929801B20
:1034F000910B8C179D0788F38EEF9FEF0CC02091E6
:10350000B900287F81E090E0283211F480E090E05B
:10351000919581959109DF91CF911F910F91089518
:103520000F931F93CF93DF93EC0184E88093BC004B
:103530000E9469298C019091BC0097FD0EC0CF3F7D
:103540008FEFD807C1F30E946929801B910B8C175C
:103550009D0788F38EEF9FEF03C08091BB0090E042
:10356000DF91CF911F910F9108950F931F93CF93E8
:10357000DF93EC0184E98093BC000E9469298C01EF
:103580009091BC0094FF0EC0CF3F8FEFD807C1F3DE
:103590000E946929801B910B8C179D0788F38EEF81
:1035A0009FEF02C080E090E0DF91CF911F910F91DB
:1035B0000895CF92DF92EF92FF920F931F93CF93D4
:1035C000DF936B017A018901B9010E94091AFC019C
:1035D000892BC9F4E601EC0CFD1CCE15DF0541F08A
:1035E000B80189910E94601AFC01892BB1F30BC0CC
:1035F000C801DF91CF911F910F91FF90EF90DF9065
:10360000CF900C94B51ACF01DF91CF911F910F91FC
:10361000FF90EF90DF90CF9008959093FA038093FE
:10362000F9030895E091F903F091FA03309721F03E
:103630000190F081E02D099480E00895E091F90374
:10364000F091FA03309799F020911901222359F053
:1036500020915A0627FF07C0DC012C9111962C936C
:10366000119725E02C930280F381E02D09940895B1
:10367000E091F903F091FA03309739F022E0DC0190
:103680002C930480F581E02D099408952091F7038F
:103690003091F8038217930771F09093F8038093A9
:1036A000F703E091F903F091FA03309721F00680D7
:1036B000F781E02D099408952091F5033091F603E8
:1036C0008217930771F09093F6038093F503E091CE
:1036D000F903F091FA03309721F00084F185E02D91
:1036E0000994089585B7806885BF85B7806885BFD0
:1036F000089508950E94721B0C94791B81E008952F
:103700000E9460290E94AE050C94F729CF92DF92A7
:10371000EF92FF920F931F93CF93DF93CDB7DEB756
:103720002B970FB6F894DEBF0FBECDBF0E94800668
:103730000E947E1B811111C08FEF89838A831B82B7
:103740000E9469298160782F9D838C8349815A81E9
:103750006B818D810E946A1C56C08CEFC82E83E05D
:10376000D82E00E010E0E02E802F0E94C806F6015F
:1037700041916F01F42EF82631F40F5F1F4F0E3088
:10378000110589F7D9CF9091B70491FF04C08B87B9
:103790000E94CE068B8520E030E04F2D50E0922F26
:1037A000BA01022E02C0759567950A94E2F760FF90
:1037B00024C02E83EF8221E030E0690102C0CC0CEE
:1037C000DD1C9A95E2F790E08C219D21892B09F46C
:1037D00020E028870E9469298160782F9A8789874D
:1037E0004E815F8168858A850E946A1CF801E450D9
:1037F000FC4F8081C826C08206C02F5F3F4F263015
:10380000310569F6BACF0E948A2B1091FB030E9402
:10381000121B1817A1F00E94121B8093FB032B961A
:103820000FB6F894DEBF0FBECDBFDF91CF911F91D1
:103830000F91FF90EF90DF90CF900C9410092B9692
:103840000FB6F894DEBF0FBECDBFDF91CF911F91B1
:103850000F91FF90EF90DF90CF900895DC011196CB
:103860002C9111978C91682F70E041E050E001C0DD
:10387000440F8A95EAF712968C91129730E08823CC
:1038800029F080911A048823E9F006C0F901E65F67
:10389000FB4F90819423B1F086E0829FF001839FDB
:1038A000F00D1124E60FF71FEE0FFF1FE656FD4F38
:1038B000808191818D939C93F901E65FFB4F80811C
:1038C000482B06C0F901E65FFB4F409580814823F5
:1038D00040830895CF93DF93CDB7DEB72B970FB614
:1038E000F894DEBF0FBECDBF942F4F83252F58878E
:1038F00069877A878B874A855B85452B21F02F3F27
:1039000009F59F3FF9F4DE01119686E0FD01119261
:103910008A95E9F785E0FE01379601900D928A9528
:10392000E1F749815A816B817C818D819E810E9462
:10393000FB232B960FB6F894DEBF0FBECDBFDF91F1
:10394000CF910895CE0107960E942E1CDCCFFC017A
:10395000808191810E94C62692959F70963041F495
:1039600080911A0491E0892780931A049093190496
:103970000895882309F41AC18238C1F40E94121BE9
:1039800081FD14C169E380910801909109010E94B1
:10399000BC280E9425272FEF81EE94E02150804023
:1039A0009040E1F700C0000069E319C08338F9F4E2
:1039B0000E94121B80FDFAC063E58091080190917E
:1039C00009010E94BC280E9425272FEF81EE94E078
:1039D000215080409040E1F700C0000063E58091F5
:1039E0000801909109010E94C7280C94252784386A
:1039F000C1F40E94121B82FDD9C067E480910801C6
:103A0000909109010E94BC280E9425272FEF81EE8A
:103A100094E0215080409040E1F700C0000067E44E
:103A2000DECF9CEF980F913A40F4682F8091080107
:103A3000909109010E94BC28D8CF90E2980F98304D
:103A400050F4877091E001C0990F8A95EAF7892FA9
:103A50000E945B27CACF9BE5980F933070F4853A9C
:103A600029F0863A31F083E890E005C081E890E0E3
:103A700002C082E890E00C94461B98E5980F9731BD
:103A800008F08EC0883A09F445C0893A09F445C067
:103A90008A3A09F445C08B3A09F445C08C3A09F4D6
:103AA00045C08B3B09F445C08C3B09F445C08D3AB9
:103AB00009F445C0803B09F445C08E3A09F445C07D
:103AC0008F3A09F445C0813B09F445C0823B09F4B3
:103AD00045C0833B09F445C0843B09F445C0853BA0
:103AE00009F445C0863B09F445C0873B09F445C04D
:103AF000883B09F445C0893B09F445C08D3B09F476
:103B000045C08E3B09F445C08A3B09F445C080E0BE
:103B100090E044C082EE90E041C089EE90E03EC06B
:103B20008AEE90E03BC085EB90E038C086EB90E0F9
:103B300035C083EB90E032C084EB90E02FC087EB80
:103B400090E02CC08CEC90E029C08DEC90E026C079
:103B500083E891E023C08AE891E020C082E991E007
:103B60001DC084E991E01AC081E292E017C083E2AF
:103B700092E014C084E292E011C085E292E00EC0AF
:103B800086E292E00BC087E292E008C08FE690E008
:103B900005C080E790E002C08AE292E00C945C1BD2
:103BA000803F20F00E94922A0C947F2B0895882356
:103BB00009F464C0823879F40E94121B81FF5EC050
:103BC00069E380910801909109010E94BC280E943C
:103BD000252769E310C08338B1F40E94121B80FFCF
:103BE0004DC063E580910801909109010E94BC28B5
:103BF0000E94252763E580910801909109010E94A8
:103C0000C7280C942527843879F40E94121B82FF60
:103C100035C067E480910801909109010E94BC2899
:103C20000E94252767E4E7CF9CEF980F913A10F4A4
:103C3000682FE1CF90E2980F983050F4877091E0B0
:103C400001C0990F8A95EAF7892F0E946127D9CF81
:103C50009BE5980F933020F480E090E00C94461B95
:103C600098E5980F973120F480E090E00C945C1B6D
:103C7000803F20F00E94FA2A0C947F2B0895CF9366
:103C8000C82F0E94B91C8C2FCF910C94D71D88236C
:103C900021F00E945B270C9425270895882321F0AA
:103CA0000E9461270C94252708958F929F92AF92CE
:103CB000BF92DF92EF92FF920F931F93CF93DF9308
:103CC0007C01D62FC72FFC01058102950F70128150
:103CD00011110E947B270E941E27882379F011234F
:103CE00069F080E28D0F883048F082E00E9407275B
:103CF0000E941E2791E0D82ED92601C0D12CAC2ECF
:103D0000A2948FE0A822B12CF501EF57FF4F0C943D
:103D10001B368C2F807FCF70882311F0C295C07F17
:103D2000112399F0CC2309F4C8C180E28D0F8830AB
:103D300010F0D11104C08C2F0E945B2703C08C2F80
:103D40000E946E270E942527B8C18D2F0E94D71D83
:103D5000CC2309F42EC280E28D0F883010F0D111EF
:103D600004C08C2F0E94612703C08C2F0E947427EF
:103D70000E9425271EC28C2F807FCF70803211F0C9
:103D8000C295C07FDD2319F0D130C9F021C01123C5
:103D900071F0002341F0013031F40E9494278C2B04
:103DA0000E948E2706C20E9494278C2B3FC10023BD
:103DB00019F0013009F4FDC10E94912711C01123AF
:103DC00021F0023008F0F5C107C00111F2C108C0AE
:103DD000112321F0011171C18C2F28C101117EC165
:103DE0008C2F2AC18C2F86958695837090E0009742
:103DF00019F0019761F0DDC1112321F08D2F9C2F67
:103E0000937002C080E090E00E94461BE2C1112343
:103E100021F08D2F9C2F937002C080E090E00E94D3
:103E20005C1BD7C11123F9F0D53F51F0D63F71F09B
:103E3000D43FA9F4809154069091550681600BC03F
:103E40008091540690915506826005C08091540679
:103E500090915506846090935506809354068D2F5B
:103E60000E94922A1EC0D53F51F0D63F71F0D43F38
:103E7000A9F480915406909155068E7F0BC08091D5
:103E80005406909155068D7F05C0809154069091FF
:103E900055068B7F90935506809354068D2F0E9474
:103EA000FA2A0E947F2B95C18C2F837009F050C095
:103EB00011118BC18D2F829586958770880F880F81
:103EC0009D2F9F70892E912CA12CB12C082E04C0FF
:103ED000880C991CAA1CBB1C0A94D2F7D4FF14C0EE
:103EE0000FE010E020E030E0B901A80104C0440F69
:103EF000551F661F771F8A95D2F7CB01BA016095CF
:103F000070958095909503C060E070E0CB01C695F8
:103F1000C695C370D0E0C230D10561F0C330D10581
:103F200081F0682979298A299B29219771F00E94BB
:103F300040254BC1682979298A299B290E9452254D
:103F400044C10E944025C501B4010E942E253DC1F7
:103F5000112319F08C2F817001C08695882309F4F4
:103F600034C18D2F829586958770880F880F9D2F7D
:103F70009F70892E912CA12CB12C082E04C0880C86
:103F8000991CAA1CBB1C0A94D2F7D4FF14C00FE0E2
:103F900010E020E030E0B901A80104C0440F551F33
:103FA000661F771F8A95D2F7CB01BA01609570958D
:103FB0008095909503C060E070E0CB01C695C695F2
:103FC000C3704C2F50E04230510569F04330510529
:103FD00089F0682979298A299B294130510571F096
:103FE0000E940526F2C0682979298A299B290E9406
:103FF0001726EBC00E940526C501B4010E94F325D7
:10400000E4C08D2F90E0FC01E05EF109E531F1059F
:1040100008F04FC0EF56FF4F0C941B36DF708C2F0B
:104020008F71112331F00E948C258D2F0E94471E25
:10403000C0C00E94AD258D2F0E944E1EBAC0112314
:1040400039F00111B6C08C2F8F710E94D225B1C0FA
:10405000023008F0AEC0F7CF112339F08C2F8F71EA
:104060000E948C25A6C01123C9F38C2F8F710E944A
:10407000AD259FC0112329F08C2F8F710E947725C9
:1040800098C00E94722595C0112349F0CF718C2FE2
:104090000E948C2563E08C2F0E94FE268AC081E05E
:1040A0000E940727023008F484C082E00E9407279C
:1040B00080C0112331F0002389F28D2F0E94B91C9A
:1040C00078C0002391F2D93349F45FEF67EE73E0D3
:1040D000515060407040E1F700C000008D2F0E94F9
:1040E000D71D67C04C2F4F706D2FC7010E94260847
:1040F0000E949F246EC0D23FB1F028F4D03F49F017
:10410000D13FF9F028C0D43FB9F058F0D53F71F055
:1041100022C0112309F447C090911A0481E0892735
:1041200008C081E0182710931A043DC011113BC04C
:1041300081E080931A0437C0111135C010921A041F
:1041400032C0112329F080911904882329F329C052
:10415000002311F328C0809119040023C1F08823A3
:1041600041F090911A0481E0892780931A041092FB
:1041700019048D2F112319F00E94B91C14C00E943C
:10418000D71D86E0F70111928A95E9F70CC08823C4
:1041900051F0111108C090911A0481E08927809391
:1041A0001A04109219044C2F4F706D2FC7010E94F2
:1041B000BC0BF8E0AF16B10441F05CF04AE0A41A81
:1041C000B10852E0A516B10420F40E94121B0E940F
:1041D0001009DD20E1F00E94FA2680FD18C0F701E9
:1041E00012820E94F4260E948C25C7010E9413218E
:1041F0000E94F426DF91CF911F910F91FF90EF90D5
:10420000DF90BF90AF909F908F900C94AD25DF9181
:10421000CF911F910F91FF90EF90DF90BF90AF90E3
:104220009F908F9008950F931F93CF93DF93EC018E
:10423000888199812B813C81232BB9F09F3F11F418
:104240008F3F99F0CE010E942209882371F0688186
:1042500079818A810E94D1268C010E9429260E94A0
:104260002B25B801CE010E94551EDF91CF911F91E1
:104270000F9108950E947B270E948B270E9425277B
:104280000E94252C0E947F2B80E090E00E94461B1C
:1042900080E090E00C945C1B8091080190910901F2
:1042A0000E94D2280C943A210E946B270C944C2136
:1042B0000E94C626E92FE295EF70F0E03297EE30CB
:1042C000F105B0F4EA55FF4F0C941B36803F91F096
:1042D00018F4803E68F40EC0843F51F40BC0803E59
:1042E00048F0813F29F406C093FB882780F90895A0
:1042F00080E0089581E00895CF93DF9300D000D04F
:104300001F92CDB7DEB70F900F900F900F900F90C8
:10431000DF91CF910895CF93DF9300D000D000D0EC
:10432000CDB7DEB726960FB6F894DEBF0FBECDBF71
:10433000DF91CF9108951F93CF93DF93C0911B041A
:1043400016E080911C04C81799F0D0E01C9FF00182
:104350001D9FF00D1124E35EFB4F4081518162816E
:104360007381848195810E948B212196C770E9CF4A
:10437000DF91CF911F91089540914D0450914E04CB
:1043800060914F04709150048091510490915204B7
:104390000C948B218091520482958F7009F054C047
:1043A00080914F04882309F44FC080911B04A09191
:1043B0001C0460914D0470914E0440915004509142
:1043C0005104B6E08A1709F43FC090E04115510549
:1043D000C1F17F3F11F46F3FA1F1B89FF001B99F88
:1043E000F00D1124E35EFB4F218172132AC020815E
:1043F000621327C02281211124C023813481241714
:10440000350710F421503109241B350B283C3105A8
:10441000C0F4209152042F7020612093520426E0B2
:10442000289FF001299FF00D1124EE5DFB4F808144
:104430008F70806180838DE494E00E9413210C943E
:104440009B2101968770BECF0895CF92DF92EF92A5
:10445000FF920F931F93CF93DF93CDB7DEB7629791
:104460000FB6F894DEBF0FBECDBF8C0185E0F8011A
:10447000DE011D9601900D928A95E1F7D8014C91CD
:1044800011965C91119712966C9112971396CD909C
:10449000DC90149730914D0470914E04809150043B
:1044A00090915104009709F46BC17F3F19F43F3F8D
:1044B00009F466C1E0904F04EE2009F4C0C02091D9
:1044C0005204C816D90628F0F601E81BF90BCF01F3
:1044D00004C0809590958C0D9D1DFF24F394883C1D
:1044E000910578F0F12C207F09F0C6C07C2DD98A87
:1044F000C88A89890E947C218DE494E00E9413215E
:10450000B1C0822F807F09F046C0751314C03413E8
:1045100012C0611110C02F702061209352040E94BC
:10452000BC218DE494E00E94132180915204D801B3
:1045300015968C932EC0CD2819F15F3F11F44F3F93
:10454000F9F0F62E61111CC080911B0420911C040F
:1045500036E0821709F45AC090E0389FF001399F85
:10456000F00D1124E35EFB4F7181571306C070817B
:10457000471303C07281711103C001968770E9CFA0
:10458000F62E662309F427C180915204816080933E
:104590005204F12C20C1751308C0341306C06111F8
:1045A00004C080915204D801C3C04D875E878D85B9
:1045B0009E856A8B0E9458216A898823E1F16623CF
:1045C000D1F120915204822F82958F7090E0029752
:1045D00074F080914D0490914E0498878F831986D2
:1045E000DB86CA862C87CE0107960E94132186E0BF
:1045F000F801ADE4B4E001900D928A95E1F70E94D4
:10460000CA210E94BC21FF24F394E5C04D875E8738
:104610008D859E850E94C626292F22952F7030E019
:10462000223031050CF0CBC09F7009F0C5C0805E10
:10463000883008F4D0C0C8010E941321E4CFC81606
:10464000D90608F453C0F601E81BF90BCF01883CEA
:10465000910508F450C0F12C7C2DD98AC88A89892B
:104660000E947C21EDE4F4E086E0DF011D928A9552
:10467000E9F70E94BC21AFC0751314C0341312C0F7
:10468000611110C080915204F8018583C8010E9415
:10469000132186E0EDE4F4E0DF011D928A95E9F74D
:1046A000FE2C99C04D875E878D859E856A8B0E9402
:1046B00058216A89882309F4BECF662309F4BBCF49
:1046C00020915204822F82958F7090E002970CF413
:1046D0008ECF80914D0490914E049A8389831B82E2
:1046E000DD82CC822E83CE0101967FCF809590957E
:1046F0008C0D9D1DACCFF62E662309F49CCF75134F
:104700002EC034132CC02091520420FD1FC0822FD4
:1047100082958F70D9F0D80115962C9315978F300C
:1047200049F08F5F982F9295907F822F8F70892B01
:1047300015968C93C8010E94132186E0F801ADE420
:10474000B4E001900D928A95E1F793CF86E0F801ED
:10475000ADE4B4E001900D928A95E1F73CC04D873D
:104760005E878D859E850E945821811140CF809162
:104770005204816080935204C8010E9413212BC00F
:10478000662309F458CF4D875E878D859E850E94EC
:104790005821F82E882309F44ECF86E0F801ADE4C5
:1047A000B4E001900D928A95E1F78DE494E00E94C7
:1047B000A71C0E94CA215DCF811139CF0CC02430C3
:1047C00031050CF038CF9F7009F431CFF801958195
:1047D000907F09F02CCF8F2D62960FB6F894DEBF34
:1047E0000FBECDBFDF91CF911F910F91FF90EF9042
:1047F000DF90CF9008951F93CF93DF93CDB7DEB7AF
:104800002C970FB6F894DEBF0FBECDBF4F835887ED
:1048100069877A878B879C87CE0107960E9425221D
:10482000882369F08F8198852A853B85232BF1F1B8
:104830009F3F09F063C08F3F09F060C037C086E03A
:10484000FE013796DE01119601900D928A95E1F7EF
:104850006F817885EA85FB85309741F17F3F11F4C0
:104860006F3F21F120911C0430E0C901019687704F
:10487000992740911B0450E08417950709F447C01D
:1048800069837A83FD83EC8396E0929FD001939FA6
:10489000B00D1124A35EBB4FFE01319601900D9225
:1048A0009A95E1F780931C040E949B2116E0809169
:1048B0001B0490911C048917C1F1189FC001112499
:1048C000835E9B4F0E942522882379F1E0911B048F
:1048D0001E9FF0011124E35EFB4F408151816281F4
:1048E0007381848195810E948B2180911B0490E0CB
:1048F00001968770992780931B04D9CF4F815885E3
:1049000069857A858B859C850E948B21CFCF0E94FB
:10491000542110921C0410921B04EDE4F4E086E094
:10492000DF011D928A95E9F7C1CF2C960FB6F89456
:10493000DEBF0FBECDBFDF91CF911F910895EF92E3
:10494000FF920F931F93CF93DF938C01892B09F470
:104950006CC0F12CEE24E394E8012196F8018491D7
:10496000843740F4843008F051C0813081F08230C7
:1049700019F15BC0853709F444C0A8F19CE7980F92
:10498000903708F052C08F770E94D71D41C00E5F4C
:104990001F4FFE01C49180E28C0F883048F4C7702D
:1049A0008E2D01C0880FCA95EAF70E947E2714C099
:1049B0008C2F0E94B91C2DC00E5F1F4FFE01C491A9
:1049C00080E28C0F883058F4C7708E2D01C0880F9C
:1049D000CA95EAF70E9484270E9425271AC08C2FC7
:1049E0000E94D71D16C00E5F1F4FFE01C491CC233D
:1049F00081F08FE99FE00197F1F700C00000C150FE
:104A0000F6CF0E5F1F4FFE01F49003C00E94B91C49
:104A10008E018F2D882309F49FCFEFE9FFE03197B6
:104A2000F1F700C000008150F5CFDF91CF911F91C9
:104A30000F91FF90EF90089508950C941C250E940B
:104A40001D2560938E0470938F048093900490933F
:104A500091040C943A2108950C941F250F931F93F1
:104A600000918E0410918F04209190043091910454
:104A7000602B712B822B932B1F910F910C941F2570
:104A80000F931F9300918E0410918F042091900436
:104A90003091910460237123822393231F910F91FE
:104AA0000C941F250F931F9300918E0410918F0477
:104AB00020919004309191046027712782279327D9
:104AC0001F910F910C941F250C944D080E94642592
:104AD00060938A0470938B0480938C0490938D046C
:104AE0000C943A2160E070E0CB010C9466250F93A2
:104AF0001F9341E050E060E070E08A019B0104C038
:104B0000000F111F221F331F8A95D2F7C901B80168
:104B10001F910F910C9466250F931F9341E050E075
:104B200060E070E004C0440F551F661F771F8A9530
:104B3000D2F780918A0490918B04A0918C04B0915B
:104B40008D048A019B01082B192B2A2B3B2BC901B1
:104B5000B8011F910F910C9466250F931F9341E0AC
:104B600050E060E070E004C0440F551F661F771FDF
:104B70008A95D2F7409550956095709580918A04FA
:104B800090918B04A0918C04B0918D048A019B01BB
:104B9000082319232A233B23C901B8011F910F9130
:104BA0000C9466250F931F9341E050E060E070E0A5
:104BB00004C0440F551F661F771F8A95D2F7809156
:104BC0008A0490918B04A0918C04B0918D048A0189
:104BD0009B01082719272A273B27C901B8011F91E4
:104BE0000F910C9466250F931F9300918A041091E6
:104BF0008B0420918C0430918D04602B712B822BBF
:104C0000932B1F910F910C9466250F931F93009186
:104C10008A0410918B0420918C0430918D046023C0
:104C20007123822393231F910F910C9466250F9378
:104C30001F9300918A0410918B0420918C04309171
:104C40008D0460277127822793271F910F910C9461
:104C500066250895292F220F920F990F890FA82FEB
:104C6000A695A695A695877051E001C0550F8A9527
:104C7000EAF785E0A89FD001112420E030E070E041
:104C8000F901EA0FFB1FED5AFB4F4081CB01022EC9
:104C900002C0969587950A94E2F7817099278195CD
:104CA00084278523842780832F5F3F4F253031055C
:104CB00039F70895292F220F920F990F890F682F26
:104CC000669566956695982F977085E0689FB00108
:104CD000112440E050E080E0FA01E60FF71FED5AA2
:104CE000FB4F208130E0092E02C0369527950A94AB
:104CF000E2F721703327042E01C0220F0A94EAF74D
:104D0000822B4F5F5F4F4530510531F70895CF92A9
:104D1000DF92EF92FF920F931F93CF93DF938C015B
:104D2000C0908E04D0908F04E0909004F090910495
:104D300080918A0490918B04A0918C04B0918D0491
:104D4000C82AD92AEA2AFB2ACFE1D0E0D701C60136
:104D50000C2E04C0B695A795979587950A94D2F71F
:104D600080FF06C0B8018C2F0E94D70B019721F459
:104D7000219760F780E001C08C2FDF91CF911F91C8
:104D80000F91FF90EF90DF90CF900895CF93DF9336
:104D9000EC010E948726BE010E94D70BDF91CF91C4
:104DA00008951F93CF93DF93EB01909118049923FB
:104DB00021F0CB010E94C62613C0882349F0CB0105
:104DC0000E948726182F682FCE010E942A2604C031
:104DD000CB010E945A26182FBE01812F0E94D70BAB
:104DE000DF91CF911F9108958091920485958595CB
:104DF00085950895809192048770089598E0899F21
:104E000090011124262B209392040C948C25209140
:104E100092048095822380939204982F977069F46E
:104E200030E0482F082E000C550B2417350729F0C9
:104E30008595859585950C94AD250895909192045E
:104E4000977081E009F480E00895E0910801F09105
:104E500009018091B6048083E0910801F091090175
:104E600090818091B504892B8083E0910801F091B5
:104E7000090190818091B404892B808380919304EF
:104E8000882381F0E0910801F09109019081892B3C
:104E9000808380910801909109010E945728811117
:104EA0001092930480910801909109010C941E1BAB
:104EB0008091B60408959091B604892B8093B6042E
:104EC000089580959091B60489238093B60408953F
:104ED0008093B60408951092B60408959091B50495
:104EE000892B8093B504089580959091B50489230A
:104EF0008093B50408951092B50408959091B40478
:104F0000892B8093B404089580959091B4048923EB
:104F10008093B40408951092B40408958093930488
:104F20000895109293040895809193040895CF9268
:104F3000DF92EF92FF926C01EE24FF24C114D104A2
:104F4000E104F10421F0C701B60120E101C020E035
:104F5000C72ED82EE92EFF24C114D104E104F10498
:104F600019F0285FC701B6016B017C0154E0F6948B
:104F7000E794D794C7945A95D1F7C114D104E104AA
:104F8000F10419F02C5FC701B6016B017C0142E00E
:104F9000F694E794D794C7944A95D1F7C114D104F5
:104FA000E104F10419F02E5FC701B601DC01CB0169
:104FB000B695A79597958795892B8A2B8B2B09F00A
:104FC0002F5F822FFF90EF90DF90CF90089580E0C9
:104FD00090E00E948B3621E08D3E9E4F09F020E04C
:104FE000822F089582E090E00C947D3683E090E07B
:104FF0000C947D3684E090E00C947D36682F84E03C
:1050000090E00C949136AB01BC018FE090E00C94E1
:10501000A336AB01BC0183E190E00C94A33660E0C1
:1050200070E0CB010C94092860E070E0CB010E9495
:1050300003280C940F286DEE7EEF80E090E00E9434
:10504000AF3660E082E090E00E94913660E083E05D
:1050500090E00E94913610928E0410928F0410926C
:1050600090041092910460E084E090E00E949136F8
:1050700060E085E090E00E94913660E086E090E09C
:105080000E9491366FEF87E090E00E94913640E0F9
:1050900050E0BA0188E090E00E94A33660E08DE025
:1050A00090E00E9491360C9414280C941B28FC016B
:1050B000329680911901882331F080915A0687FF3A
:1050C00002C09EE101C096E080E0915028F021915D
:1050D0002223D9F38F5FF9CF08959C01FC0132960A
:1050E0009FEF80E04191461789F09F3F19F44111ED
:1050F00001C0982F8F5F8630A9F79F3F39F0F901E3
:10510000E90FF11D97FDFA95628308950895FC015A
:10511000329608962081261301C010823196E81736
:10512000F907C1F70895262F2695269526952E3145
:1051300068F4FC01E20FF11D677021E030E001C06E
:10514000220F6A95EAF78281282B22830895262F61
:105150002695269526952E3170F4FC01E20FF11D5F
:10516000677021E030E001C0220F6A95EAF72095D0
:10517000828128232283089520911901222329F076
:1051800020915A0627FD0C9493280C946D282091A9
:105190001901222329F020915A0627FD0C94A728F3
:1051A0000C94872820911901FC013296222331F0BA
:1051B00080915A0687FF02C08EE101C086E0DF01C0
:1051C0001D928A95E9F7089508950C94E4280E94A9
:1051D000E52880916006843049F11092B80420E4FB
:1051E00088E190E00FB6F894A895809360000FBE18
:1051F0002093600080E00E9410090E94E52883B798
:10520000817F846083BF83B7816083BF78948895F2
:1052100083B78E7F83BF0FB6F894A8958091600006
:10522000886180936000109260000FBE0895089519
:10523000CF930E94D7050E9480060E941729C0E0E4
:105240008C2F0E94C806811104C0CF5FCE30C1F7F9
:1052500001C081E0CF91089508950C942C290E94FB
:1052600054210E94121B0E9410090C942D291F9298
:105270000F920FB60F9211248F939F93AF93BF930A
:105280008091B804811113C0809156069091570601
:10529000A0915806B09159064196A11DB11D809369
:1052A000560690935706A0935806B0935906BF919F
:1052B000AF919F918F910F900FBE0F901F901895F7
:1052C00082E084BD93E095BD9AEF97BD80936E0018
:1052D00008952FB7F8948091560690915706A091A3
:1052E0005806B09159062FBF0895CF92DF92EF92E2
:1052F000FF920F931F932FB7F89440915606509149
:10530000570660915806709159062FBF6A017B01BC
:10531000EE24FF248C0120E030E0C016D106E20626
:10532000F30610F4415051099A01281B390BC901A9
:105330001F910F91FF90EF90DF90CF900895789498
:105340001F920F920FB60F9211248F939F93AF93DA
:10535000BF938091560690915706A0915806B09140
:1053600059060196A11DB11D8093560690935706CC
:10537000A0935806B0935906BF91AF919F918F911A
:105380000F900FBE0F901F901895F89481E08093B6
:10539000E00080E28093D800E9ECF0E010828FE139
:1053A0009EE40197F1F700C000001DBA109268005A
:1053B0001CBC10BE1FBA10927A0010926E001092A0
:1053C0006F0010927100109272001082ECEBF0E00E
:1053D000108214B817B81AB81DB810BA108215B8D0
:1053E00018B81BB81EB811BA0C94003F08950E945B
:1053F000E727811102C00E9455280E94F22780935E
:10540000B7040E94FA2790E090935B0680935A06B7
:105410000E94F627682F70E080E090E00C942C2525
:105420008091BC0480FF0BC060910D0185E0689FF6
:10543000B001112475956795759567952BC081FF0F
:1054400009C060910D0185E0689FB0011124759538
:10545000679520C082FF07C060910D0185E0689FBD
:10546000B001112417C09091BD049923D1F060912F
:105470000C01961788F720910D0185E0289F900177
:105480001124929FA001939F500D112470E0CA0136
:105490000E9407366038710540F46115710539F0D6
:1054A00002C065E070E0862F08958FE7089581E0DF
:1054B00008958091BC0480FF08C060910B0170E0EA
:1054C000759567957595679521C081FF06C06091B8
:1054D0000B0170E07595679519C082FF04C060915B
:1054E0000B0170E010C09091BD049923C1F0609150
:1054F0000A019617A0F780910B01899FC001112422
:1055000070E00E9407366038710528F46115710556
:1055100021F0862F08958FE7089581E0089561E0D6
:1055200070E0F4CF803F21F40E94102A819504C0DE
:10553000813F29F40E94102A8093C1040895823F7C
:1055400021F40E94102A819504C0833F29F40E940F
:10555000102A8093C0040895893F19F40E94592AA3
:1055600005C08A3F31F40E94592A81958093C20474
:1055700008958B3F21F40E94592A819504C08C3FE5
:1055800029F40E94592A8093C3040895843F21F48A
:105590008091BF04816017C0853F21F48091BF04D2
:1055A000826011C0863F21F48091BF0484600BC0EB
:1055B000873F21F48091BF04886005C0883F31F4A3
:1055C0008091BF0480618093BF0408958D3F21F4D2
:1055D0008091BC0481600BC08E3F21F48091BC049B
:1055E000826005C08F3F29F48091BC048460809361
:1055F000BC040895803F39F48091C10487FF6CC0DA
:105600001092C10469C0813F29F48091C104181629
:10561000BCF362C09091C004823F29F497FF5CC044
:105620001092C00459C0833F19F41916CCF354C02A
:10563000893F41F48091C20418160CF04DC01092BD
:10564000C2044AC08A3F29F48091C20487FF44C043
:10565000F6CF8B3F39F48091C30487FF3DC0109291
:10566000C3043AC08C3F29F48091C3041816BCF3DC
:1056700033C0843F21F48091BF048E7F17C0853FE3
:1056800021F48091BF048D7F11C0863F21F4809169
:10569000BF048B7F0BC0873F21F48091BF04877FBD
:1056A00005C0883F31F48091BF048F7E8093BF0492
:1056B00013C08D3F21F48091BC048E7F0BC08E3FC0
:1056C00021F48091BC048D7F05C08F3F29F4809127
:1056D000BC048B7F8093BC048091C00481110EC0F8
:1056E0008091C10481110AC08091C204811106C059
:1056F0008091C304811102C01092BD0408958EEB05
:1057000094E00E94381B0E9469299093BA04809308
:10571000B90408951F93CF93DF938091B9049091BA
:10572000BA040E947529AC019091BD04992321F01F
:1057300020910E0130E006C02091BB048AE0289F32
:10574000900111244217530708F47BC08091C004D4
:10575000C091C104D091C2041091C304811107C04B
:10576000C1116BC0D11169C0111167C06AC09F3FE0
:1057700019F09F5F9093BD04181624F40E94102A1C
:105780008093C0048091C00487FF05C00E94102A46
:1057900081958093C0041C1624F40E94102A8093E3
:1057A000C1048091C10487FF05C00E94102A819521
:1057B0008093C1043091C0043323E1F02091C104EF
:1057C0002223C1F045EB3403C0011124892F990F26
:1057D000990B009709F481E08093C00435EB230313
:1057E000C0011124892F990F990B009709F481E0CA
:1057F0008093C1041D1624F40E94592A8093C20488
:105800008091C20487FF05C00E94592A8195809328
:10581000C204111624F40E94592A8093C304809173
:10582000C30487FF05C00E94592A81958093C30451
:10583000DF91CF911F910C947F2B9F3F09F099CF5F
:10584000A1CFDF91CF911F910895EEEBF4E086E0B8
:10585000DF011D928A95E9F71092BD041092BC04F5
:1058600008958091E40408950F931F93CF93DF93DD
:1058700000D01F92CDB7DEB78C010E94952E8230EA
:1058800011F0843021F584E089831B830A8382E050
:105890008093E9008FEF9091E800815095FD06C05C
:1058A00095ED9A95F1F700008111F5CF8091E80010
:1058B00085FF0DC040E050E063E070E0CE0101964E
:1058C0000E94B22E8091E8008E778093E8000F90BE
:1058D0000F900F90DF91CF911F910F910895CF936B
:1058E000DF9300D01F92CDB7DEB720916006243041
:1058F00031F523E02983805891099B838A8382E0D4
:105900008093E9008FEF9091E800815095FD06C0EB
:1059100095ED9A95F1F700008111F5CF8091E8009F
:1059200085FF0DC040E050E063E070E0CE010196DD
:105930000E94B22E8091E8008E778093E8000F904D
:105940000F900F90DF91CF910895CF93DF93EC01EB
:105950000E94952E823011F08430F9F482E0809319
:10596000E9009FEF8091E800915085FD06C085ED2C
:105970008A95F1F700009111F5CF8091E80085FF3D
:105980000CC040E050E066E070E0CE010E94B22E14
:105990008091E8008E778093E800DF91CF910895A1
:1059A000CF93DF93EC010E94952E823011F084306A
:1059B000D9F580911901882339F080915A0687FF23
:1059C00003C060E282E002C068E081E08093E90009
:1059D0008FEF9091E800815095FD06C095ED9A9566
:1059E000F1F700008111F5CF8091E80085FF1CC020
:1059F00080911901811105C040E050E068E070E03D
:105A000003C070E040E050E0CE010E94B22E8091D1
:105A1000E8008E778093E80080E2FE01A4ECB4E019
:105A200001900D928A95E1F7DF91CF9108958091D1
:105A30005F06811109C00E9447300E94A430809106
:105A4000E20084608093E200089510925F0608955A
:105A5000089508950C942F2942E061EC81E00E94A2
:105A6000C12F42E261EC82E00C94C12F809162066A
:105A7000833009F453C030F4813071F0823009F47E
:105A80008CC008958A3009F478C08B3009F45EC068
:105A9000893009F09AC020C080916106813A09F0EE
:105AA00094C08091E800877F8093E800809165062C
:105AB00090916606892B21F460E284EC94E003C0A7
:105AC00060E080E090E070E00E94FD2E8091E800B0
:105AD0008B778093E800089580916106813209F008
